:020000040000FA
:060000000A128A110C280F
:10000800FE00030EF2000A08F3000A128A1177288C
:100018000A128A110F28F701F801F90183010A125F
:100028008A1116280A128A1155200A128A11790390
:10003800031D1F28202827288312031305182528A5
:1000480026282728F9017803031D2B282C28332874
:10005800831203138518312832283328F8018312B4
:100068000313051C3828392843287908031D3D281F
:100078003E284328F901F90A0808013E8800851C32
:10008800462847281B287808031D4B284C281B287E
:10009800F801F80A0808FF3E88001B280A128A118E
:1000A8000C28831603138801831203138801013077
:1000B800831603138500831603178801F901F801D5
:1000C800831203138C11831603138C1585160B17D3
:1000D8008B17F401F501F60124300A128A119720D2
:1000E8000A128A110800831203138C1D7C287D28AC
:1000F80090280A128A11B5200A128A11F100710893
:10010800F7008312031308080A128A11C5200A127D
:100118008A11831203138C1173088A00720E8300EC
:10012800FE0E7E0E090083120313A000831603132C
:10013800871283120313201DA228A328A928760852
:100148008316031394008715AF2874087604831662
:100158000313940087118312031320087504940075
:1001680008000A128A11BE200A128A118312031388
:100178001308080083160313141CC328C428BE28B8
:0E0188000800F00070088312031393000800B3
:04400E00F420FF3F5C
:00000001FF
