:020000040000FA
:060000000A128A11F32F21
:100B020064008001840A0406031900340406822D5D
:100B1200F00083160313981C8F2D902D8A2D7008D8
:100B220083120313990008000A128A11A4250A12DB
:100B32008A1164300A128A1189250A128A119A2DA1
:100B42000A128A1100288316031788018901831665
:100B52000313860188018312031386018801831619
:100B620003138113003083120313CD000030CC0035
:100B72002530CB008030CA000A128A1116270A12C9
:100B82008A11013A031DC62DC72DCB2D01308312C8
:100B920003138800003083120313C7000130C6001C
:100BA2008630C500A030C4000A128A11DB250A1261
:100BB2008A1108002830831203139400831603134A
:100BC2009101831203134408C8004508C90046086E
:100BD200CA004708CB0002300310C80DC90DCA0D68
:100BE200CB0DFF3E031DED2D4B08F3004A08F2002A
:100BF2004908F1004808F0000030F7007A30F600AA
:100C02001230F5000030F4000A128A1113260A127B
:100C12008A117008FF3E831603139300940187150F
:100C2200071608000030FC000030FB000030FA001C
:100C32000030F90073087204710470040319222E43
:100C4200232E702EFD01FD0A332E0130F800031011
:100C5200F00DF10DF20DF30DF80B282E0130F80016
:100C62007808FD07F31F362E372E262E0130F800A6
:100C72000310F90DFA0DFB0DFC0DF80B392E73085C
:100C82007702031D4E2E72087602031D4E2E710846
:100C92007502031D4E2E70087402031C512E522E33
:100CA200612E7008F4027108031C710FF5027208BC
:100CB200031C720FF6027308031C730FF7027914F8
:100CC20001300310F30CF20CF10CF00CFF3E031D8B
:100CD200622E0130FD02031D6F2E702E372E7C080E
:100CE200F3007B08F2007A08F1007908F0000800AE
:100CF20083120313C501F31F7F2E802E8D2EF00960
:100D0200F109F209F309F00A0319F10A0319F20AC7
:100D12000319F30AC501C50AF71F902E912EA02EC2
:100D2200F409F509F609F709F40A0319F50A031992
:100D3200F60A0319F70A0130F8007808C5060030F0
:100D4200C9000030C8000030C7000030C600730878
:100D52007204710470040319AF2EB02EFD2EC4016B
:100D6200C40AC02E0130F8000310F00DF10DF20D8F
:100D7200F30DF80BB52E0130F8007808C407F31F05
:100D8200C32EC42EB32E0130F8000310C60DC70DBA
:100D9200C80DC90DF80BC62E73087702031DDB2E92
:100DA20072087602031DDB2E71087502031DDB2E0D
:100DB20070087402031CDE2EDF2EEE2E7008F40281
:100DC2007108031C710FF5027208031C720FF60200
:100DD2007308031C730FF702461401300310F30C5F
:100DE200F20CF10CF00CFF3E031DEF2E0130C40299
:100DF200031DFC2EFD2EC42E45080319012F022FC0
:100E02000D2FC609C709C809C909C60A0319C70AA5
:100E12000319C80A0319C90A4908F3004808F2006D
:100E22004708F1004608F0000800831203134A083D
:100E3200CE004B08CF004C08D0004D08D100063040
:100E42000310CE0DCF0DD00DD10DFF3E031D212F6E
:100E52005108F3005008F2004F08F1004E08F0006C
:100E62004A08D2004B08D3004C08D4004D08D500E4
:100E720006300310D20DD30DD40DD50DFF3E031D48
:100E82003A2F0030D6000930D7003D30D80000306C
:100E9200D9005208D6025308031C530F512F522F68
:100EA200D7025408031C540F572F582FD802550845
:100EB200031C550F5D2F5E2FD9025908F700580801
:100EC200F6005708F5005608F4000A128A1179262E
:100ED2000A128A117108FA007008F90001307A02C8
:100EE200003003197902031C772F782FD42F831235
:100EF20003134A08CE004B08CF004C08D0004D081F
:100F0200D10004300310CE0DCF0DD00DD10DFF3E18
:100F1200031D832F5108F3005008F2004F08F1001F
:100F22004E08F0004A08D2004B08D3004C08D40007
:100F32004D08D50004300310D20DD30DD40DD50DBC
:100F4200FF3E031D9C2F0030D6000930D7003D30F4
:100F5200D8000030D9005208D6025308031C530FA0
:100F6200B32FB42FD7025408031C540FB92FBA2F32
:100F7200D8025508031C550FBF2FC02FD90259089C
:100F8200F7005808F6005708F5005608F4000A1250
:100F92008A1179260A128A117108FA007008F9007A
:100FA20083160313181501307A02003003197902EF
:100FB2000318DC2FDD2FF12F790883160313990014
:100FC2001812831203139817831603138717071730
:100FD2008312031318168316031398160130F22F87
:100FE2000030080083132030840044300A128A1132
:0E0FF20081250A128A1183010A128A11952D97
:04400E00D420FF3E7D
:00000001FF
