:020000040000FA
:060000000A128A110C280F
:10000800FE00030EF0000A08F1000A168A11882C77
:100018000A128A110F28FA01FB0183120313A501A2
:10002800A601A701A80183010A128A15F0281A302F
:100038002206031D2028212835280230F9007908D6
:10004800F5000F300A168A11C7240A128A11E13006
:10005800F4009030F5000A128A1533200A128A112A
:100068009F2F1B302206031D3A283B284F280230B9
:10007800F9007908F5000F300A168A11C7240A1208
:100088008A11FF30F4009030F5000A128A153320E7
:100098000A128A119F2F1C302206031D5428552846
:1000A80069280230F9007908F5000F300A168A111C
:1000B800C7240A128A111D30F4009130F5000A1283
:1000C8008A1533200A128A119F2F1D302206031D1C
:1000D8006E286F2883280230F9007908F5000F3060
:1000E8000A168A11C7240A128A113B30F40091308B
:1000F800F5000A128A1533200A128A119F2F1E3022
:100108002206031D882889289D280230F9007908CD
:10011800F5000F300A168A11C7240A128A113030E6
:10012800F4009030F5000A128A1533200A128A1159
:100138009F2F1F302206031DA228A328B7280230AC
:10014800F9007908F5000F300A168A11C7240A1237
:100158008A114E30F4009030F5000A128A153320C7
:100168000A128A119F2F20302206031DBC28BD28A1
:10017800D1280230F9007908F5000F300A168A11E3
:10018800C7240A128A116C30F4009030F5000A1264
:100198008A1533200A128A119F2F21302206031D47
:1001A800D628D728EB280230F9007908F5000F3057
:1001B8000A168A11C7240A128A118A30F40090306C
:1001C800F5000A128A1533200A128A119F2F22304D
:1001D8002206031DF028F12805290230F9007908C4
:1001E800F5000F300A168A11C7240A128A11A8309E
:1001F800F4009030F5000A128A1533200A128A1189
:100208009F2F23302206031D0A290B291F2902309C
:10021800F9007908F5000F300A168A11C7240A1266
:100228008A11C630F4009030F5000A128A1533207E
:100238000A128A119F2F24302206031D24292529FA
:1002480039290230F9007908F5000F300A168A11A9
:10025800C7240A128A11E430F4009030F5000A121B
:100268008A1533200A128A119F2F25302206031D72
:100278003E293F2953290230F9007908F5000F304B
:100288000A168A11C7240A128A110230F400913022
:10029800F5000A128A1533200A128A119F2F263078
:1002A8002206031D582959296D290230F9007908B9
:1002B800F5000F300A168A11C7240A128A11203055
:1002C800F4009130F5000A128A1533200A128A11B7
:1002D8009F2F27302206031D722973298729023090
:1002E800F9007908F5000F300A168A11C7240A1296
:1002F8008A113E30F4009130F5000A128A15332035
:100308000A128A119F2F28302206031D8C298D2955
:10031800A1290230F9007908F5000F300A168A1170
:10032800C7240A128A113330F4009030F5000A12FB
:100338008A1533200A128A119F2F29302206031D9D
:10034800A629A729BB290230F9007908F5000F3042
:100358000A168A11C7240A128A115130F400903003
:10036800F5000A128A1533200A128A119F2F2A30A3
:100378002206031DC029C129D5290230F9007908B0
:10038800F5000F300A168A11C7240A128A116F3035
:10039800F4009030F5000A128A1533200A128A11E7
:1003A8009F2F2B302206031DDA29DB29EF29023083
:1003B800F9007908F5000F300A168A11C7240A12C5
:1003C8008A118D30F4009030F5000A128A15332016
:1003D8000A128A119F2F2C302206031DF429F529B1
:1003E800092A0230F9007908F5000F300A168A1137
:1003F800C7240A128A11AB30F4009030F5000A12B3
:100408008A1533200A128A119F2F2D302206031DC8
:100418000E2A0F2A232A0230F9007908F5000F3036
:100428000A168A11C7240A128A11C930F4009030BA
:10043800F5000A128A1533200A128A119F2F2E30CE
:100448002206031D282A292A3D2A0230F9007908A4
:10045800F5000F300A168A11C7240A128A11E730EC
:10046800F4009030F5000A128A1533200A128A1116
:100478009F2F2F302206031D422A432A572A023073
:10048800F9007908F5000F300A168A11C7240A12F4
:100498008A110530F4009130F5000A128A153320CC
:1004A8000A128A119F2F30302206031D5C2A5D2A0A
:1004B800712A0230F9007908F5000F300A168A11FE
:1004C800C7240A128A112330F4009130F5000A1269
:1004D8008A1533200A128A119F2F31302206031DF4
:1004E800762A772A8B2A0230F9007908F5000F302E
:1004F8000A168A11C7240A128A114130F400913071
:10050800F5000A128A1533200A128A119F2F3230F9
:100518002206031D902A912AA52A0230F90079089B
:10052800F5000F300A168A11C7240A128A113630CC
:10053800F4009030F5000A128A1533200A128A1145
:100548009F2F33302206031DAA2AAB2ABF2A023066
:10055800F9007908F5000F300A168A11C7240A1223
:100568008A115430F4009030F5000A128A153320AD
:100578000A128A119F2F34302206031DC42AC52A65
:10058800D92A0230F9007908F5000F300A168A11C5
:10059800C7240A128A117230F4009030F5000A124A
:1005A8008A1533200A128A119F2F35302206031D1F
:1005B800DE2ADF2AF32A0230F9007908F5000F3025
:1005C8000A168A11C7240A128A119030F400903052
:1005D800F5000A128A1533200A128A119F2F363025
:1005E8002206031DF82AF92A0D2B0230F900790892
:1005F800F5000F300A168A11C7240A128A11AE3084
:10060800F4009030F5000A128A1533200A128A1174
:100618009F2F37302206031D122B132B272B023056
:10062800F9007908F5000F300A168A11C7240A1252
:100638008A11CC30F4009030F5000A128A15332064
:100648000A128A119F2F38302206031D2C2B2D2BBE
:10065800412B0230F9007908F5000F300A168A118B
:10066800C7240A128A11EA30F4009030F5000A1201
:100678008A1533200A128A119F2F39302206031D4A
:10068800462B472B5B2B0230F9007908F5000F3019
:100698000A168A11C7240A128A110830F400913008
:1006A800F5000A128A1533200A128A119F2F3A3050
:1006B8002206031D602B612B752B0230F900790887
:1006C800F5000F300A168A11C7240A128A1126303B
:1006D800F4009130F5000A128A1533200A128A11A3
:1006E8009F2F3B302206031D7A2B7B2B8F2B02304A
:1006F800F9007908F5000F300A168A11C7240A1282
:100708008A114430F4009130F5000A128A1533201A
:100718000A128A119F2F3C302206031D942B952B19
:10072800A92B0230F9007908F5000F300A168A1152
:10073800C7240A128A113930F4009030F5000A12E1
:100748008A1533200A128A119F2F3D302206031D75
:10075800AE2BAF2BC32B0230F9007908F5000F3010
:100768000A168A11C7240A128A115730F4009030E9
:10077800F5000A128A1533200A128A119F2F3E307B
:100788002206031DC82BC92BDD2B0230F90079087E
:10079800F5000F300A168A11C7240A128A1175301B
:1007A800F4009030F5000A128A1533200A128A11D3
:1007B8009F2F3F302206031DE22BE32BF72B02303D
:1007C800F9007908F5000F300A168A11C7240A12B1
:1007D8008A119330F4009030F5000A128A153320FC
:1007E8000A128A119F2F40302206031DFC2BFD2B75
:1007F800112C0230F9007908F5000F300A168A1119
:10080800C7240A128A11B130F4009030F5000A1298
:100818008A1533200A128A119F2F41302206031DA0
:10082800162C172C2B2C0230F9007908F5000F3004
:100838000A168A11C7240A128A11CF30F4009030A0
:10084800F5000A128A1533200A128A119F2F4230A6
:100858002206031D302C312C452C0230F900790872
:10086800F5000F300A168A11C7240A128A11ED30D2
:10087800F4009030F5000A128A1533200A128A1102
:100888009F2F43302206031D4A2C4B2C5F2C02302D
:10089800F9007908F5000F300A168A11C7240A12E0
:1008A8008A110B30F4009130F5000A128A153320B2
:1008B8000A128A119F2F44302206031D642C652CCE
:1008C800792C0230F9007908F5000F300A168A11E0
:1008D800C7240A128A112930F4009130F5000A124F
:1008E8008A1533200A128A119F2F45302206031DCC
:1008F8007E2C7F2C932C0230F9007908F5000F30FC
:100908000A168A11C7240A128A114730F400913056
:10091800F5000A128A1533200A128A119F2F4630D1
:100928002206031D982C992CAD2C0230F900790869
:10093800F5000F300A168A11C7240A128A113C30B2
:10094800F4009030F5000A128A1533200A128A1131
:100958009F2F47302206031DB22CB32CC72C023020
:10096800F9007908F5000F300A168A11C7240A120F
:100978008A115A30F4009030F5000A128A15332093
:100988000A128A119F2F48302206031DCC2CCD2C29
:10099800E12C0230F9007908F5000F300A168A11A7
:1009A800C7240A128A117830F4009030F5000A1230
:1009B8008A1533200A128A119F2F49302206031DF7
:1009C800E62CE72CFB2C0230F9007908F5000F30F3
:1009D8000A168A11C7240A128A119630F400903038
:1009E800F5000A128A1533200A128A119F2F4A30FD
:1009F8002206031D002D012D152D0230F90079085E
:100A0800F5000F300A168A11C7240A128A11B43069
:100A1800F4009030F5000A128A1533200A128A1160
:100A28009F2F4B302206031D1A2D1B2D2F2D023010
:100A3800F9007908F5000F300A168A11C7240A123E
:100A48008A11D230F4009030F5000A128A1533204A
:100A58000A128A119F2F4C302206031D342D352D82
:100A6800492D0230F9007908F5000F300A168A116D
:100A7800C7240A128A11F030F4009030F5000A12E7
:100A88008A1533200A128A119F2F4D302206031D22
:100A98004E2D4F2D632D0230F9007908F5000F30E7
:100AA8000A168A11C7240A128A110E30F4009130EE
:100AB800F5000A128A1533200A128A119F2F4E3028
:100AC8002206031D682D692D7D2D0230F900790855
:100AD800F5000F300A168A11C7240A128A112C3021
:100AE800F4009130F5000A128A1533200A128A118F
:100AF8009F2F4F302206031D822D832D972D023004
:100B0800F9007908F5000F300A168A11C7240A126D
:100B18008A114A30F4009130F5000A128A15332000
:100B28000A128A119F2F50302206031D9C2D9D2DDD
:100B3800B12D0230F9007908F5000F300A168A1134
:100B4800C7240A128A113F30F4009030F5000A12C7
:100B58008A1533200A128A119F2F51302206031D4D
:100B6800B62DB72DCB2D0230F9007908F5000F30DE
:100B78000A168A11C7240A128A115D30F4009030CF
:100B8800F5000A128A1533200A128A119F2F523053
:100B98002206031DD02DD12DE52D0230F90079084C
:100BA800F5000F300A168A11C7240A128A117B3001
:100BB800F4009030F5000A128A1533200A128A11BF
:100BC8009F2F53302206031DEA2DEB2DFF2D0230F7
:100BD800F9007908F5000F300A168A11C7240A129D
:100BE8008A119930F4009030F5000A128A153320E2
:100BF8000A128A119F2F54302206031D042E052E37
:100C0800192E0230F9007908F5000F300A168A11FA
:100C1800C7240A128A11B730F4009030F5000A127E
:100C28008A1533200A128A119F2F55302206031D78
:100C38001E2E1F2E332E0230F9007908F5000F30D2
:100C48000A168A11C7240A128A11D530F400903086
:100C5800F5000A128A1533200A128A119F2F56307E
:100C68002206031D382E392E4D2E0230F900790840
:100C7800F5000F300A168A11C7240A128A11F330B8
:100C8800F4009030F5000A128A1533200A128A11EE
:100C98009F2F57302206031D522E532E672E0230E7
:100CA800F9007908F5000F300A168A11C7240A12CC
:100CB8008A111130F4009130F5000A128A15332098
:100CC8000A128A119F2F58302206031D6C2E6D2E92
:100CD800812E0230F9007908F5000F300A168A11C2
:100CE800C7240A128A112F30F4009130F5000A1235
:100CF8008A1533200A128A119F2F59302206031DA4
:100D0800862E872E9B2E0230F9007908F5000F30C9
:100D18000A168A11C7240A128A114D30F40091303C
:100D2800F5000A128A1533200A128A119F2F5A30A9
:100D38002206031DA02EA12EB52E0230F900790837
:100D4800F5000F300A168A11C7240A128A11423098
:100D5800F4009030F5000A128A1533200A128A111D
:100D68009F2F5B302206031DBA2EBB2ECF2E0230DA
:100D7800F9007908F5000F300A168A11C7240A12FB
:100D88008A116030F4009030F5000A128A15332079
:100D98000A128A119F2F5C302206031DD42ED52EED
:100DA800E92E0230F9007908F5000F300A168A1189
:100DB800C7240A128A117E30F4009030F5000A1216
:100DC8008A1533200A128A119F2F5D302206031DCF
:100DD800EE2EEF2E032F0230F9007908F5000F30C0
:100DE8000A168A11C7240A128A119C30F40090301E
:100DF800F5000A128A1533200A128A119F2F5E30D5
:100E08002206031D082F092F1D2F0230F90079082B
:100E1800F5000F300A168A11C7240A128A11BA304F
:100E2800F4009030F5000A128A1533200A128A114C
:100E38009F2F5F302206031D222F232F372F0230CA
:100E4800F9007908F5000F300A168A11C7240A122A
:100E58008A11D830F4009030F5000A128A15332030
:100E68000A128A119F2F60302206031D3C2F3D2F46
:100E7800512F0230F9007908F5000F300A168A114F
:100E8800C7240A128A11F630F4009030F5000A12CD
:100E98008A1533200A128A119F2F61302206031DFA
:100EA800562F572F6B2F0230F9007908F5000F30B5
:100EB8000A168A11C7240A128A111430F4009130D4
:100EC800F5000A128A1533200A128A119F2F623000
:100ED8002206031D702F712F852F0230F900790823
:100EE800F5000F300A168A11C7240A128A11323007
:100EF800F4009130F5000A128A1533200A128A117B
:100F08009F2F63302206031D8A2F8B2F9F2F0230BD
:100F1800F9007908F5000F300A168A11C7240A1259
:100F28008A115030F4009130F5000A128A153320E6
:100F38000A128A119F2F080083120313A2002203AA
:100F4800031DA72FA82FBC2F0230F9007908F50040
:100F580007300A168A11C7240A128A111430F400BD
:100F68009030F5000A128A1533200A128A11EF2FE1
:100F780002302206031DC12FC22FD62F0230F900DE
:100F88007908F50007300A168A11C7240A128A114F
:100F98000030F4009030F5000A128A1533200A1246
:100FA8008A11EF2F03302206031DDB2FDC2FEF2FD2
:100FB8000230F9007908F50007300A168A11C724AB
:100FC8000A128A111030F4009030F5000A128A15BE
:100FD80033200A128A110800F3008312031307143E
:100FE8007308880087140D30F200F20BF92F831272
:060FF8000313871008003E
:101000000A168A1196240A128A15831203131308EA
:1010100008008316031788018901831603138710BC
:1010200007118601880183120313860188010715C1
:101030008714831603138901831203138901A901FD
:10104000A90A091489140915F201F301F4012030E9
:101050000A168A11B1240A128A150A128A157920F1
:101060000A128A15080083120313A001A1015C284B
:1010700020087407F7007508F6000318F60AA01F89
:101080004228F6037608F800780883120313FF005D
:10109000770884000A168A1153210A128A150A1247
:1010A0008A11F0270A128A15013083120313A00750
:1010B0000318A10A0030A10720087407F70075087B
:1010C000F6000318F60AA01F6628F6037608F80053
:1010D000780883120313FF00770884000A168A1128
:1010E00053210A128A15003A031D772878283828D8
:1010F00008008316031388018312031388018316E3
:101100000313071087101A30F600F830F500F50BBE
:101110008728F60B8728000083120313071030304E
:101120000A168A119D240A128A150830F600C93061
:10113000F500F50B9928F60B99289E2830300A16F1
:101140008A119D240A128A150F30F6004730F500E7
:10115000F50BA828F60BA828AD2830300A168A11FE
:101160009D240A128A150330F6009730F500F50B1E
:10117000B728F60BB728BC2838300A168A119D24E8
:101180000A128A150330F6009730F500F50BC628D1
:10119000F60BC628CB280C300A168A119D240A1299
:1011A0008A150330F6009730F500F50BD528F60BBD
:1011B000D528DA2801300A168A119D240A128A15C8
:1011C0000330F6009730F500F50BE428F60BE42821
:1011D000E92806300A168A119D240A128A15080089
:1011E0000A128A1509200A128A150A168A118F24F2
:1011F0000A128A15F501F50A01300A168A11C72468
:101200000A128A150430F4009030F5000A128A158B
:1012100033200A128A15C73083120313A300102942
:10122000A30B0F291329F501F50A06300A168A11B6
:10123000C7240A128A150830F4009030F5000A120B
:101240008A1533200A128A15C73083120313A300AC
:101250002929A30B28292C29F501F50A0C300A1697
:101260008A11C7240A128A150C30F4009030F50058
:101270000A128A1533200A128A15831203132903CE
:10128000031D432944297E290910C7308312031303
:10129000A3004A29A30B49294D2901300A168A11B6
:1012A00082240A128A15033083120313A400973094
:1012B000A300A30B5929A40B59290A128A1500204F
:1012C0000A128A1583120313A3002308FB000330BC
:1012D00083120313A4009730A300A30B6D29A40B62
:1012E0006D298312031309140230A3002308A900F7
:1012F0007B080A128A11A0270A128A15023083126B
:1013000003132906031D85298629C8298910C7309A
:1013100083120313A3008C29A30B8B298F2901307F
:101320000A168A1182240A128A15033083120313C3
:10133000A4009730A300A30B9B29A40B9B290A129E
:101340008A1500200A128A1583120313A3002308AA
:10135000FA00033083120313A4009730A300A30BF9
:10136000AF29A40BAF298312031389140330A30000
:101370002308A9007A080A128A1514220A128A156B
:10138000C73083120313A300C529A30BC429C8299E
:101390000330831203132906031DCF29D0293D29C9
:1013A0000911C73083120313A300D629A30BD52933
:1013B000D92901300A168A1182240A128A150330AB
:1013C00083120313A4009730A300A30BE529A40BF9
:1013D000E5290A128A1500200A128A1583120313BE
:1013E000A3002308A500033083120313A400973041
:1013F000A300A30BF929A40BF929831203130915E0
:10140000A901A90A25080A168A11EB240A128A15CD
:10141000C73083120313A3000D2AA30B0C2A102A32
:101420003D290A128A110C2883120313A2003330BB
:10143000220203181C2A1D2A382A0230F9007908D2
:10144000F50001300A168A11C7240A128A151830CD
:10145000F4009030F5000A128A1533200A128A151A
:10146000C730F900332AF90B322A362A372AEA2AFA
:1014700033302202031C3D2A3E2A662A67302202AC
:101480000318432A442A662A0230F9007908F50035
:1014900001300A168A11C7240A128A151B30F4007B
:1014A0009030F5000A128A1533200A128A15C730C7
:1014B000F9005A2AF90B592A5D2A5E2A831203136E
:1014C0002208CD3EF9007908A200EA2A67302202FC
:1014D000031C6B2A6C2A942A9A3022020318712A60
:1014E000722A942A0230F9007908F50001300A16B0
:1014F0008A11C7240A128A151E30F4009030F500B4
:101500000A128A1533200A128A15C730F900882A70
:10151000F90B872A8B2A8C2A8312031322089A3EFE
:10152000F9007908A200EA2A9A302202031C992ABB
:101530009A2AC22ACD30220203189F2AA02AC22A40
:101540000230F9007908F50001300A168A11C72423
:101550000A128A152130F4009030F5000A128A151B
:1015600033200A128A15C730F900B62AF90BB52ABA
:10157000B92ABA2A831203132208673EF9007908B0
:10158000A200EA2ACD302202031CC72AC82AEA2A6E
:101590000230F9007908F50001300A168A11C724D3
:1015A0000A128A152430F4009030F5000A128A15C8
:1015B00033200A128A15C730F900DE2AF90BDD2A1A
:1015C000E12AE22A831203132208343EF900790843
:1015D000A200EA2A831203132203031DF02AF12A30
:1015E000052B0230F9007908F50003300A168A113C
:1015F000C7240A128A156430F4009030F5000A12EC
:101600008A1533200A128A15FF2F02302206031D85
:101610000A2B0B2B1F2B0230F9007908F500033041
:101620000A168A11C7240A128A15A030F4009030D5
:10163000F5000A128A1533200A128A15FF2F03308B
:101640002206031D242B252B392B0230F9007908A3
:10165000F50003300A168A11C7240A128A15DC30F5
:10166000F4009030F5000A128A1533200A128A1508
:10167000FF2F04302206031D3E2B3F2B532B02303D
:10168000F9007908F50003300A168A11C7240A12F6
:101690008A151830F4009130F5000A128A153320AB
:1016A0000A128A15FF2F05302206031D582B592BCD
:1016B0006D2B0230F9007908F50003300A168A1103
:1016C000C7240A128A152A30F4009030F5000A1255
:1016D0008A1533200A128A15FF2F06302206031DB1
:1016E000722B732B872B0230F9007908F500033039
:1016F0000A168A11C7240A128A156630F40090303F
:10170000F5000A128A1533200A128A15FF2F0730B6
:101710002206031D8C2B8D2BA12B0230F90079089A
:10172000F50003300A168A11C7240A128A15A2305E
:10173000F4009030F5000A128A1533200A128A1537
:10174000FF2F08302206031DA62BA72BBB2B023030
:10175000F9007908F50003300A168A11C7240A1225
:101760008A15DE30F4009030F5000A128A15332015
:101770000A128A15FF2F09302206031DC02BC12B28
:10178000D52B0230F9007908F50003300A168A11CA
:10179000C7240A128A151A30F4009130F5000A1293
:1017A0008A1533200A128A15FF2F0A302206031DDC
:1017B000DA2BDB2BEF2B0230F9007908F500033030
:1017C0000A168A11C7240A128A152D30F4009030A7
:1017D000F5000A128A1533200A128A15FF2F0B30E2
:1017E0002206031DF42BF52B092C0230F900790891
:1017F000F50003300A168A11C7240A128A156930C7
:10180000F4009030F5000A128A1533200A128A1566
:10181000FF2F0C302206031D0E2C0F2C232C023020
:10182000F9007908F50003300A168A11C7240A1254
:101830008A15A530F4009030F5000A128A1533207D
:101840000A128A15FF2F0D302206031D282C292C81
:101850003D2C0230F9007908F50003300A168A1190
:10186000C7240A128A15E130F4009030F5000A12FC
:101870008A1533200A128A15FF2F0E302206031D07
:10188000422C432C572C0230F9007908F500033024
:101890000A168A11C7240A128A151D30F4009130E5
:1018A000F5000A128A1533200A128A15FF2F0F300D
:1018B0002206031D5C2C5D2C712C0230F900790886
:1018C000F50003300A168A11C7240A128A1530302F
:1018D000F4009030F5000A128A1533200A128A1596
:1018E000FF2F10302206031D762C772C8B2C023014
:1018F000F9007908F50003300A168A11C7240A1284
:101900008A156C30F4009030F5000A128A153320E5
:101910000A128A15FF2F11302206031D902C912CDC
:10192000A52C0230F9007908F50003300A168A1157
:10193000C7240A128A15A830F4009030F5000A1264
:101940008A1533200A128A15FF2F12302206031D32
:10195000AA2CAB2CBF2C0230F9007908F50003301B
:101960000A168A11C7240A128A15E430F40090304E
:10197000F5000A128A1533200A128A15FF2F133038
:101980002206031DC42CC52CD92C0230F90079087D
:10199000F50003300A168A11C7240A128A1520306E
:1019A000F4009130F5000A128A1533200A128A15C4
:1019B000FF2F14302206031DDE2CDF2CF32C023007
:1019C000F9007908F50003300A168A11C7240A12B3
:1019D0008A153330F4009030F5000A128A1533204E
:1019E0000A128A15FF2F15302206031DF82CF92C38
:1019F0000D2D0230F9007908F50003300A168A111E
:101A0000C7240A128A156F30F4009030F5000A12CC
:101A10008A1533200A128A15FF2F16302206031D5D
:101A2000122D132D272D0230F9007908F50003300F
:101A30000A168A11C7240A128A15AB30F4009030B6
:101A4000F5000A128A1533200A128A15FF2F173063
:101A50002206031D2C2D2D2D412D0230F900790871
:101A6000F50003300A168A11C7240A128A15E730D6
:101A7000F4009030F5000A128A1533200A128A15F4
:101A8000FF2F18302206031D462D472D5B2D0230F7
:101A9000F9007908F50003300A168A11C7240A12E2
:101AA0008A152330F4009130F5000A128A1533208C
:101AB0000A128A15FF2F19302206031D602D612D91
:101AC000752D0230F9007908F50003300A168A11E5
:101AD000C7240A128A153630F4009030F5000A1235
:101AE0008A1533200A128A15FF2F1A302206031D89
:101AF0007A2D7B2D8F2D0230F9007908F500033007
:101B00000A168A11C7240A128A157230F40090301E
:101B1000F5000A128A1533200A128A15FF2F1B308E
:101B20002206031D942D952DA92D0230F900790868
:101B3000F50003300A168A11C7240A128A15AE303E
:101B4000F4009030F5000A128A1533200A128A1523
:101B5000FF2F1C302206031DAE2DAF2DC32D0230EA
:101B6000F9007908F50003300A168A11C7240A1211
:101B70008A15EA30F4009030F5000A128A153320F5
:101B80000A128A15FF2F1D302206031DC82DC92DEC
:101B9000DD2D0230F9007908F50003300A168A11AC
:101BA000C7240A128A152630F4009130F5000A1273
:101BB0008A1533200A128A15FF2F1E302206031DB4
:101BC000E22DE32DF72D0230F9007908F5000330FE
:101BD0000A168A11C7240A128A153930F400903087
:101BE000F5000A128A1533200A128A15FF2F1F30BA
:101BF0002206031DFC2DFD2D112E0230F90079085F
:101C0000F50003300A168A11C7240A128A157530A6
:101C1000F4009030F5000A128A1533200A128A1552
:101C2000FF2F20302206031D162E172E2B2E0230DA
:101C3000F9007908F50003300A168A11C7240A1240
:101C40008A15B130F4009030F5000A128A1533205D
:101C50000A128A15FF2F21302206031D302E312E45
:101C6000452E0230F9007908F50003300A168A1172
:101C7000C7240A128A15ED30F4009030F5000A12DC
:101C80008A1533200A128A15FF2F22302206031DDF
:101C90004A2E4B2E5F2E0230F9007908F5000330F2
:101CA0000A168A11C7240A128A152930F4009130C5
:101CB000F5000A128A1533200A128A15FF2F2330E5
:101CC0002206031D642E652E792E0230F900790854
:101CD000F50003300A168A11C7240A128A153C300F
:101CE000F4009030F5000A128A1533200A128A1582
:101CF000FF2F24302206031D7E2E7F2E932E0230CE
:101D0000F9007908F50003300A168A11C7240A126F
:101D10008A157830F4009030F5000A128A153320C5
:101D20000A128A15FF2F25302206031D982E992EA0
:101D3000AD2E0230F9007908F50003300A168A1139
:101D4000C7240A128A15B430F4009030F5000A1244
:101D50008A1533200A128A15FF2F26302206031D0A
:101D6000B22EB32EC72E0230F9007908F5000330E9
:101D70000A168A11C7240A128A15F030F40090302E
:101D8000F5000A128A1533200A128A15FF2F273010
:101D90002206031DCC2ECD2EE12E0230F90079084B
:101DA000F50003300A168A11C7240A128A152C304E
:101DB000F4009130F5000A128A1533200A128A15B0
:101DC000FF2F28302206031DE62EE72EFB2E0230C1
:101DD000F9007908F50003300A168A11C7240A129F
:101DE0008A153F30F4009030F5000A128A1533202E
:101DF0000A128A15FF2F29302206031D002F012FFA
:101E0000152F0230F9007908F50003300A168A11FF
:101E1000C7240A128A157B30F4009030F5000A12AC
:101E20008A1533200A128A15FF2F2A302206031D35
:101E30001A2F1B2F2F2F0230F9007908F5000330DD
:101E40000A168A11C7240A128A15B730F400903096
:101E5000F5000A128A1533200A128A15FF2F2B303B
:101E60002206031D342F352F492F0230F90079083F
:101E7000F50003300A168A11C7240A128A15F330B6
:101E8000F4009030F5000A128A1533200A128A15E0
:101E9000FF2F2C302206031D4E2F4F2F632F0230B1
:101EA000F9007908F50003300A168A11C7240A12CE
:101EB0008A152F30F4009130F5000A128A1533206C
:101EC0000A128A15FF2F2D302206031D682F692F55
:101ED0007D2F0230F9007908F50003300A168A11C7
:101EE000C7240A128A154230F4009030F5000A1215
:101EF0008A1533200A128A15FF2F2E302206031D61
:101F0000822F832F972F0230F9007908F5000330D4
:101F10000A168A11C7240A128A157E30F4009030FE
:101F2000F5000A128A1533200A128A15FF2F2F3066
:101F30002206031D9C2F9D2FB12F0230F900790836
:101F4000F50003300A168A11C7240A128A15BA301E
:101F5000F4009030F5000A128A1533200A128A150F
:101F6000FF2F30302206031DB62FB72FCB2F0230A4
:101F7000F9007908F50003300A168A11C7240A12FD
:101F80008A15F630F4009030F5000A128A153320D5
:101F90000A128A15FF2F31302206031DD02FD12FB0
:101FA000E52F0230F9007908F50003300A168A118E
:101FB000C7240A128A153230F4009130F5000A1253
:101FC0008A1533200A128A15FF2F32302206031D8C
:101FD000EA2FEB2FFF2F0230F9007908F5000330CC
:101FE0000A168A11C7240A128A155030F40091305B
:101FF000F5000A128A1533200A128A15FF2F0800ED
:102000004F344B3420340034533431343A340034B8
:10201000533432343A340034533433343A340034A1
:1020200048344F34543400344C344F345734003433
:1020300030342E34003431342E34003432342E34E3
:10204000003433342E34003434342E3400343034FD
:1020500030340034313430340034323430340034ED
:1020600033343034003434343034003435343034A4
:1020700000343634303400343734303400343834BB
:1020800030340034393430340034303431340034B6
:102090003134313400343234313400343334313477
:1020A000003434343134003435343134003436348F
:1020B000313400343734313400343834313400347E
:1020C0003934313400343034323400343134323441
:1020D0000034323432340034333432340034343463
:1020E000323400343534323400343634323400344F
:1020F0003734323400343834323400343934323402
:102100000034303433340034313433340034323436
:10211000333400343334333400343434333400341F
:1021200035343334003436343334003437343334D4
:1021300000343834333400343934333400343034F8
:1021400034340034313434340034323434340034F0
:1021500033343434003434343434003435343434A7
:1021600000343634343400343734343400343834C2
:1021700034340034393434340034303435340034B9
:10218000313435340034323435340034333435347A
:102190000034343435340034353435340034363496
:1021A0003534003437343534003438343534003481
:1021B0003934353400343034363400343134363444
:1021C000003432343634003433343634003434346A
:1021D0003634003435343634003436343634003452
:1021E0003734363400343834363400343934363405
:1021F000003430343734003431343734003432343E
:102200003734003433343734003434343734003422
:1022100035343734003436343734003437343734D7
:1022200000343834373400343934373400343034FF
:1022300038340034313438340034323438340034F3
:1022400033343834003434343834003435343834AA
:1022500000343634383400343734383400343834C9
:1022600038340034393438340034303439340034BC
:10227000313439340034323439340034333439347D
:10228000003434343934003435343934003436349D
:102290003934003437343934003438343934003484
:1022A000393439340034FF1B5D2983137F188317B9
:1022B0000008840A0319FF0A08007F087F398A0092
:0A22C0000408840A0319FF0A8200D3
:10290400F2007208831203139300080071088A000E
:10291400700E8300FE0E7E0E090001300A168A1125
:102924009D240A168A11080083160313141C9B2C79
:102934009C2C962C0800F4008312031307107408CF
:10294400880087140630F3003030F200F20BA82C14
:10295400F30BA82C00008312031387100800F50062
:10296400831603138712751DB82CB92CBD2C74085B
:1029740094008715C12C720874049400871175089B
:1029840073048312031394000800F7007503031DF6
:10299400CC2CCD2CD92C77087F3EF6007608F80095
:1029A40078080A168A119D240A168A11EA2C023024
:1029B4007506031DDE2CDF2CEA2C7708BF3EF600DB
:1029C4007608F80078080A168A119D240A168A11D6
:1029D400080083120313A200643022020318F32CAC
:1029E400F42C082D0230F9007908F5000E300A168F
:1029F4008A11C7240A168A112830F4009030F50091
:102A04000A128A1533200A168A114F2D64302202C5
:102A1400031C0D2D0E2D2F2DC83022020318132D4B
:102A2400142D2F2D0230F9007908F5000E300A1606
:102A34008A11C7240A168A114630F4009030F50032
:102A44000A128A1533200A168A11831203132208E4
:102A54009C3EF9007908A2004F2DC8302202031CC5
:102A6400342D352D4F2D0230F9007908F5000E3044
:102A74000A168A11C7240A168A116430F4009030A9
:102A8400F5000A128A1533200A168A1183120313D9
:102A94002208383EF9007908A200831203132208A1
:102AA400031D552D562D692D0230F9007908F500C6
:102AB4000F300A168A11C7240A168A112730F40027
:102AC4009030F5000A128A1533200A168A118312EF
:102AD40003132203031D6F2D702D862D0230F90080
:102AE4007908F5000F300A168A11C7240A168A11CC
:102AF4004530F4009030F5000A128A1533200A1686
:102B04008A110A128A119F2F02302206031D8B2D6F
:102B14008C2DA02D0230F9007908F5000F300A162B
:102B24008A11C7240A168A116330F4009030F50024
:102B34000A128A1533200A168A11832D03302206BD
:102B4400031DA52DA62DBA2D0230F9007908F50034
:102B54000F300A168A11C7240A168A118130F4002C
:102B64009030F5000A128A1533200A168A11832D33
:102B740004302206031DBF2DC02DD42D0230F900D0
:102B84007908F5000F300A168A11C7240A168A112B
:102B94009F30F4009030F5000A128A1533200A168B
:102BA4008A11832D05302206031DD92DDC2D0A162A
:102BB4008A11F82E0230F9007908F5000F300A1650
:102BC4008A11C7240A168A11BD30F4009030F5002A
:102BD4000A128A1533200A168A11832D1030220610
:102BE400031DF52DF62D0C2E0230F9007908F500A1
:102BF4000F300A168A11C7240A168A11DE30F4002F
:102C04009030F5000A128A1533200A168A110A1226
:102C14008A119F2F11302206031D112E122E262EEB
:102C24000230F9007908F5000F300A168A11C7241A
:102C34000A168A11FC30F4009030F5000A128A1545
:102C440033200A168A11092E12302206031D2B2E58
:102C54002C2E402E0230F9007908F5000F300A16A8
:102C64008A11C7240A168A111A30F4009130F5002B
:102C74000A128A1533200A168A11092E13302206E5
:102C8400031D452E462E5A2E0230F9007908F50010
:102C94000F300A168A11C7240A168A113830F40034
:102CA4009130F5000A128A1533200A168A11092E6A
:102CB40014302206031D5F2E602E742E0230F9009C
:102CC4007908F5000F300A168A11C7240A168A11EA
:102CD4002D30F4009030F5000A128A1533200A16BC
:102CE4008A11092E15302206031D792E7A2E8E2E76
:102CF4000230F9007908F5000F300A168A11C7244A
:102D04000A168A114B30F4009030F5000A128A1525
:102D140033200A168A11092E16302206031D932E1B
:102D2400942EA82E0230F9007908F5000F300A1607
:102D34008A11C7240A168A116930F4009030F5000C
:102D44000A128A1533200A168A11092E1730220610
:102D5400031DAD2EAE2EC22E0230F9007908F50007
:102D64000F300A168A11C7240A168A118730F40014
:102D74009030F5000A128A1533200A168A11092E9A
:102D840018302206031DC72EC82EDC2E0230F9008F
:102D94007908F5000F300A168A11C7240A168A1119
:102DA400A530F4009030F5000A128A1533200A1673
:102DB4008A11092E19302206031DE12EE42E0A126F
:102DC4008A111B280230F9007908F5000F300A1621
:102DD4008A11C7240A168A11C330F4009030F50012
:102DE4000A128A1533200A168A11092E0630220681
:102DF400031DFD2EFE2E142F0230F9007908F50074
:102E04000F300A168A11C7240A168A11DB30F4001F
:102E14009030F5000A128A1533200A168A110A1214
:102E24008A119F2F07302206031D192F1A2F2E2FC8
:102E34000230F9007908F5000F300A168A11C72408
:102E44000A168A11F930F4009030F5000A128A1536
:102E540033200A168A11112F08302206031D332F3E
:102E6400342F482F0230F9007908F5000F300A1684
:102E74008A11C7240A168A111730F4009130F5001C
:102E84000A128A1533200A168A11112F09302206D4
:102E9400031D4D2F4E2F622F0230F9007908F500E3
:102EA4000F300A168A11C7240A168A113530F40025
:102EB4009130F5000A128A1533200A168A11112F4F
:102EC4000A302206031D672F682F7C2F0230F90079
:102ED4007908F5000F300A168A11C7240A168A11D8
:102EE4002A30F4009030F5000A128A1533200A16AD
:102EF4008A11112F0B302206031D812F822F962F4A
:102F04000230F9007908F5000F300A168A11C72437
:102F14000A168A114830F4009030F5000A128A1516
:102F240033200A168A11112F0C302206031D9B2F01
:102F34009C2FB02F0230F9007908F5000F300A16E3
:102F44008A11C7240A168A116630F4009030F500FD
:102F54000A128A1533200A168A11112F0D302206FF
:102F6400031DB52FB62FCA2F0230F9007908F500DA
:102F74000F300A168A11C7240A168A118430F40005
:102F84009030F5000A128A1533200A168A11112F7F
:102F94000E302206031DCF2FD02FE42F0230F9006C
:102FA4007908F5000F300A168A11C7240A168A1107
:102FB400A230F4009030F5000A128A1533200A1664
:102FC4008A11112F0F302206031DE92FEC2F0A1648
:102FD4008A11F02D0230F9007908F5000F300A1635
:102FE4008A11C7240A168A11C030F4009030F50003
:0C2FF4000A128A1533200A168A11112FC8
:04400E00F420FF3F5C
:00000001FF
