:020000040000FA
:060000000A128A11FC2F18
:100D0A000A128A11A1260A128A11831603131114D0
:100D1A0008000A128A11A1260A128A1183160313DD
:100D2A00111508000A128A11A1260A128A117008DE
:100D3A008312031393000800831603131419A62EB3
:100D4A00A72EA12E11081F39031DAC2EAD2EA12EE0
:100D5A000800831603178801890183160313860185
:100D6A00880183120313860188010030A300013031
:100D7A00A2008630A100A030A0000A128A11F6262D
:100D8A000A128A1108000A128A11A1260A128A1165
:100D9A008316031391150A128A11A1260A128A11BF
:100DAA00831203131308F200F3017208F4007308A4
:100DBA00F5000A128A11A1260A128A117003710417
:100DCA00031DE82EE92EED2E831603139112F02E41
:100DDA0083160313911611167508F1007408F000B2
:100DEA000800283083120313940083160313910119
:100DFA00831203132008A4002108A5002208A600D4
:100E0A002308A70002300310A40DA50DA60DA70DF7
:100E1A00FF3E031D082F2708F3002608F2002508C5
:100E2A00F1002408F0000030F7007A30F6001230A2
:100E3A00F5000030F4000A128A112E270A128A11CC
:100E4A007008FF3E83160313930094018715071653
:100E5A0008000030FC000030FB000030FA000030CF
:100E6A00F900730872047104700403193D2F3E2FB0
:100E7A008B2FFD01FD0A4E2F0130F8000310F00DF3
:100E8A00F10DF20DF30DF80B432F0130F80078083D
:100E9A00FD07F31F512F522F412F0130F800031085
:100EAA00F90DFA0DFB0DFC0DF80B542F73087702A0
:100EBA00031D692F72087602031D692F71087502D6
:100ECA00031D692F70087402031C6C2F6D2F7C2F71
:100EDA007008F4027108031C710FF5027208031CF2
:100EEA00720FF6027308031C730FF70279140130AC
:100EFA000310F30CF20CF10CF00CFF3E031D7D2FD6
:100F0A000130FD02031D8A2F8B2F522F7C08F3001C
:100F1A007B08F2007A08F1007908F00008000A124A
:100F2A008A11AE260A128A110A128A1185260A1213
:100F3A008A11EE30F0000030F1000A128A11972669
:100F4A000A128A11FA30F0000030F1000A128A11EE
:100F5A0097260A128A110A128A118E260A128A11F1
:100F6A00033083120313AA000830A9007630A800C0
:100F7A00A80BBD2FA90BBD2FAA0BBD2F00000A126B
:100F8A008A1185260A128A11EF30F0000030F1002A
:100F9A000A128A1197260A128A110030F000F1000B
:100FAA000A128A11C8260A128A11700883120313B8
:100FBA0088000A128A118E260A128A1103308312B5
:100FCA000313AA000830A9007630A800A80BEB2F5B
:100FDA00A90BEB2FAA0BEB2F00000130831203138E
:100FEA00A80028088607992F0A128A110028830167
:060FFA000A128A11942F77
:04400E00F420FF3F5C
:00000001FF
