:020000040000FA
:060000000A128A110C280F
:10000800FE00030EF7000A08F8000A128A11C42835
:100018000A128A110F28F001F101F201F301F4012B
:1000280083120313A401A501A60183010A128A11F0
:100038001D280A128A117D200A128A11C7308312DC
:100048000313A3002728A30B26282A2883120313A7
:100058009F147203031D3128322844288312031386
:100068001E08A3002308F000F201C730831203130F
:10007800A3003E28A30B3D284128831203139F1495
:1000880040307002031849284A2852288312031363
:10009800081488100811F101F10A2D283F30700268
:1000A800031C5728582868284630700203185D2812
:1000B8005E28682883120313881408100811023078
:1000C800A3002308F1002D2845307002031C6D2879
:1000D8006E28782883120313881008100815033037
:1000E800A3002308F1002D28F1012D280A128A11F6
:1000F8000C28831603138801831203138801013027
:10010800831603138500831603178801F401F3018E
:10011800F201831203138701A5018316031708153B
:100128008312031305111F083F3940389F008316B7
:1001380003131F129F12831203131F08C3390838B1
:100148009F00831603139F13831203131F140C13AA
:10015800831603130C170B178B17831203138C11B9
:10016800831603138C15851683120313A001A101AE
:10017800A20124300A128A11EB200A128A110800FF
:10018800831203130C1FC928CA28CD280C13F201A7
:10019800F20A8C1DD028D128E4280A128A110921D4
:1001A8000A128A11F600760883120313A500710853
:1001B8000A128A1119210A128A11831203138C1147
:1001C80078088A00770E8300FE0E7E0E0900F9007B
:1001D800831603138712791DF228F328FB2883124C
:1001E8000313220883160313940087150329831227
:1001F8000313200822048316031394008711790837
:10020800831203132104940008000A128A11122190
:100218000A128A11831203131308080083160313A2
:10022800141C1729182912290800F50075088312CB
:060238000313930008000F
:04400E00F420FF3F5C
:00000001FF
