:020000040000FA
:060000000A128A110C280F
:10000800FE00030EF6000A08F7000A128A11752886
:100018000A128A110F28F001F101F201F301F4012B
:10002800F50183010A128A114E28831603138801E9
:100038008312031388010130831603138500831686
:1000480003178801F501F401F301F001831203138A
:1000580087018316031708158312031305111F0858
:100068003F3940389F00831603131F129F128312D3
:1000780003131F08C33908389F00831603139F13FF
:10008800831203131F140C13831603130C170B1777
:100098008B1708000A128A1119200A128A11C73010
:1000A800F8005628F80B552859285A2883120313A4
:1000B8009F147303031D612862285D2883120313AC
:1000C8001E088800F301C730F8006A28F80B692871
:1000D8006D286E28831203139F145D280A128A1153
:1000E8000C28831203130C1F7A287B287E280C13F4
:1000F800F301F30A77088A00760E8300FE0E7E0E5F
:020108000900EC
:04400E00F420FF3F5C
:00000001FF
