:020000040000FA
:060000000A128A110C280F
:10000800FE00030EF7000A08F8000A128A118D286C
:100018000A128A110F28F001F101F201F301F4012B
:1000280083120313A401A50183010A128A1164280B
:100038008316031388018312031388010130831682
:1000480003138500831603178801831203138501A0
:10005800F401F301F201A5018701831603170815BE
:100068008312031305111F083F3940389F00831678
:1000780003131F129F12831203131F08C339083872
:100088009F00831603139F13831203131F140C136B
:10009800831603130C170B178B17831203138C117A
:1000A800831603138C15851683120313A001A1016F
:1000B800A20124300A128A11B4200A128A110800F7
:1000C8000A128A111C200A128A11C73083120313DC
:1000D800A3006E28A30B6D287128831203139F14A5
:1000E8007203031D782879287428831203131E08C5
:1000F8008800F201C73083120313A3008328A30BDF
:1001080082288628831203139F1474280A128A11DE
:100118000C28831203130C1F9228932896280C137B
:10012800F201F20A8C1D99289A28AD280A128A1120
:10013800D2200A128A11F6007608F00083120313FF
:100148001E080A128A11E2200A128A118312031366
:100158008C1178088A00770E8300FE0E7E0E090047
:10016800F900831603138712791DBB28BC28C428FD
:100178008312031322088316031394008715CC28CF
:100188008312031320082204831603139400871193
:100198007908831203132104940008000A128A11B3
:1001A800DB200A128A11831203131308080083162E
:1001B8000313141CE028E128DB280800F500750863
:0801C8008312031393000800E9
:04400E00F420FF3F5C
:00000001FF
