:020000040000FA
:060000000A128A110C280F
:10000800FE00030EF2000A08F3000A128A1164289F
:100018000A128A110F28F001F10183010A128A11CC
:1000280015280A128A1154200A128A117103031D15
:100038001E281F282628831203130518242825287C
:100048002628F1017003031D2A282B283228831241
:1000580003138518302831283228F001831203133E
:10006800051C3728382842287108031D3C283D28DC
:100078004228F101F10A0808013E8800851C45283C
:1000880046281A287008031D4A284B281A28F00108
:10009800F00A0808FF3E88001A280A128A110C285C
:1000A8008316031388018312031388010130831612
:1000B80003138500831603178801F101F001080076
:0E00C80073088A00720E8300FE0E7E0E090081
:04400E00F420FF3F5C
:00000001FF
