:020000040000FA
:060000000A128A110C280F
:10000800FE00030EF0000A08F1000A128A119B296B
:100018000A128A110F28F901FA0183120313A001A9
:10002800A101A201A30183010A128A119228831651
:10003800031388018312031388018316031307101F
:1000480087101A30F600F830F500F50B2928F60B62
:100058002928000083120313071030300A128A116E
:100068005F210A128A110830F600C930F500F50B35
:100078003B28F60B3B28402830300A128A115F21B2
:100088000A128A110F30F6004730F500F50B4A289E
:10009800F60B4A284F2830300A128A115F210A12BB
:1000A8008A110330F6009730F500F50B5928F60B46
:1000B80059285E2838300A128A115F210A128A11DB
:1000C8000330F6009730F500F50B6828F60B682822
:1000D8006D280C300A128A115F210A128A11033026
:1000E800F6009730F500F50B7728F60B77287C2873
:1000F80001300A128A115F210A128A110330F600B0
:100108009730F500F50B8628F60B86288B280630E5
:100118000A128A115F210A128A1108000A128A112A
:100128002A210A128A110A128A1194210A128A11A2
:10013800F501F50A01300A128A1106210A128A11FC
:100148000B300A128A11E1200A128A110830831230
:100158000313A6009D30A5000530A400A40BB22807
:10016800A50BB228A60BB2280A128A1194210A12EA
:100178008A11023083120313A4002408F500013009
:100188000A128A1106210A128A1101300A128A11EA
:10019800E1200A128A11083083120313A6009D3049
:1001A800A5000530A400A40BD728A50BD728A60BBB
:1001B800D728DD280A128A110C28F600F401F50167
:1001C800F8287408760784000A128A1173210A1223
:1001D8008A110A128A1185210A128A110130F4073C
:1001E8000318F50A0030F5077408760784000A1228
:1001F8008A1173210A128A11003A031D042905295C
:10020800E5280800F7007503031D0B290C29182998
:1002180077087F3EF6007608F80078080A128A11F7
:100228005F210A128A11292902307506031D1D292A
:100238001E2929297708BF3EF6007608F8007808B5
:100248000A128A115F210A128A11080083160317FD
:100258008801890183160313871007118601880115
:10026800831203138601880107158714F201F3012D
:10027800F40120300A128A1149210A128A110A123D
:100288008A111B200A128A110800F500831603132D
:100298008712751D5029512955297408940087150E
:1002A800592972087404940087117508730483121D
:1002B800031394000800F400831203130710740852
:1002C800880087140630F3003030F200F20B6A29F8
:1002D800F30B6A290000831203138710080001300A
:1002E8008A000408840A8207003448344F344C34A6
:1002F80041342034623461346234793400346134F6
:100308000034F3008312031307147308880087145A
:100318000D30F200F20B8E298312031387100800A8
:1003280001300A128A115F210A128A110800710825
:0C0338008A00700E8300FE0E7E0E09008D
:04400E00F420FF3F5C
:00000001FF
