:020000040000FA
:060000000A128A110C280F
:10000800FE00030EF0000A08F1000A168A11432ABE
:100018000A128A110F28FA01FB0183120313BB018C
:10002800BC01BD01BE01BF0183010A128A15432824
:100038001A302206031D2128222836280230F9000A
:100048007908F5000F300A168A1190220A128A11CF
:10005800E130F4009030F5000A168A11B4220A1231
:100068008A11A02F1B302206031D3B283C2850284C
:100078000230F9007908F5000F300A168A1190222B
:100088000A128A11FF30F4009030F5000A168A111E
:10009800B4220A128A11A02F1C302206031D5528EB
:1000A80056286A280230F9007908F5000F300A1638
:1000B8008A1190220A128A111D30F4009130F5003D
:1000C8000A168A11B4220A128A11A02F1D3022069C
:1000D800031D6F28702884280230F9007908F5007C
:1000E8000F300A168A1190220A128A113B30F40046
:1000F8009130F5000A168A11B4220A128A11A02F2B
:100108001E302206031D89288A289E280230F900FD
:100118007908F5000F300A168A1190220A128A11FE
:100128003030F4009030F5000A168A11B4220A1211
:100138008A11A02F1F302206031DA328A428B8283F
:100148000230F9007908F5000F300A168A1190225A
:100158000A128A114E30F4009030F5000A168A11FE
:10016800B4220A128A11A02F20302206031DBD28AE
:10017800BE28D2280230F9007908F5000F300A1697
:100188008A1190220A128A116C30F4009030F5001E
:100198000A168A11B4220A128A11A02F21302206C7
:1001A800031DD728D828EC280230F9007908F50073
:1001B8000F300A168A1190220A128A118A30F40026
:1001C8009030F5000A168A11B4220A128A11A02F5B
:1001D80022302206031DF128F22806290230F900F0
:1001E8007908F5000F300A168A1190220A128A112E
:1001F800A830F4009030F5000A168A11B4220A12C9
:100208008A11A02F23302206031D0B290C2920292F
:100218000230F9007908F5000F300A168A11902289
:100228000A128A11C630F4009030F5000A168A11B5
:10023800B4220A128A11A02F24302206031D252970
:1002480026293A290230F9007908F5000F300A16F4
:100258008A1190220A128A11E430F4009030F500D5
:100268000A168A11B4220A128A11A02F25302206F2
:10027800031D3F29402954290230F9007908F50067
:100288000F300A168A1190220A128A110230F400DD
:100298009130F5000A168A11B4220A128A11A02F89
:1002A80026302206031D59295A296E290230F900E1
:1002B8007908F5000F300A168A1190220A128A115D
:1002C8002030F4009130F5000A168A11B4220A127F
:1002D8008A11A02F27302206031D73297429882923
:1002E8000230F9007908F5000F300A168A119022B9
:1002F8000A128A113E30F4009130F5000A168A116C
:10030800B4220A128A11A02F28302206031D8D2933
:100318008E29A2290230F9007908F5000F300A1653
:100328008A1190220A128A113330F4009030F500B5
:100338000A168A11B4220A128A11A02F293022061D
:10034800031DA729A829BC290230F9007908F5005E
:100358000F300A168A1190220A128A115130F400BD
:100368009030F5000A168A11B4220A128A11A02FB9
:100378002A302206031DC129C229D6290230F900D4
:100388007908F5000F300A168A1190220A128A118C
:100398006F30F4009030F5000A168A11B4220A1260
:1003A8008A11A02F2B302206031DDB29DC29F02916
:1003B8000230F9007908F5000F300A168A119022E8
:1003C8000A128A118D30F4009030F5000A168A114D
:1003D800B4220A128A11A02F2C302206031DF529F7
:1003E800F6290A2A0230F9007908F5000F300A16B2
:1003F8008A1190220A128A11AB30F4009030F5006D
:100408000A168A11B4220A128A11A02F2D30220648
:10041800031D0F2A102A242A0230F9007908F50052
:100428000F300A168A1190220A128A11C930F40074
:100438009030F5000A168A11B4220A128A11A02FE8
:100448002E302206031D292A2A2A3E2A0230F900C4
:100458007908F5000F300A168A1190220A128A11BB
:10046800E730F4009030F5000A168A11B4220A1217
:100478008A11A02F2F302206031D432A442A582A06
:100488000230F9007908F5000F300A168A11902217
:100498000A128A110530F4009130F5000A168A1103
:1004A800B4220A128A11A02F30302206031D5D2AB9
:1004B8005E2A722A0230F9007908F5000F300A1610
:1004C8008A1190220A128A112330F4009130F50023
:1004D8000A168A11B4220A128A11A02F3130220674
:1004E800031D772A782A8C2A0230F9007908F5004A
:1004F8000F300A168A1190220A128A114130F4002C
:100508009130F5000A168A11B4220A128A11A02F16
:1005180032302206031D912A922AA62A0230F900B7
:100528007908F5000F300A168A1190220A128A11EA
:100538003630F4009030F5000A168A11B4220A12F7
:100548008A11A02F33302206031DAB2AAC2AC02AF9
:100558000230F9007908F5000F300A168A11902246
:100568000A128A115430F4009030F5000A168A11E4
:10057800B4220A128A11A02F34302206031DC52A7C
:10058800C62ADA2A0230F9007908F5000F300A166F
:100598008A1190220A128A117230F4009030F50004
:1005A8000A168A11B4220A128A11A02F353022069F
:1005B800031DDF2AE02AF42A0230F9007908F50041
:1005C8000F300A168A1190220A128A119030F4000C
:1005D8009030F5000A168A11B4220A128A11A02F47
:1005E80036302206031DF92AFA2A0E2B0230F900AA
:1005F8007908F5000F300A168A1190220A128A111A
:10060800AE30F4009030F5000A168A11B4220A12AE
:100618008A11A02F37302206031D132B142B282BE9
:100628000230F9007908F5000F300A168A11902275
:100638000A128A11CC30F4009030F5000A168A119B
:10064800B4220A128A11A02F38302206031D2D2B3E
:100658002E2B422B0230F9007908F5000F300A16CC
:100668008A1190220A128A11EA30F4009030F500BB
:100678000A168A11B4220A128A11A02F39302206CA
:10068800031D472B482B5C2B0230F9007908F50035
:100698000F300A168A1190220A128A110830F400C3
:1006A8009130F5000A168A11B4220A128A11A02F75
:1006B8003A302206031D612B622B762B0230F9009B
:1006C8007908F5000F300A168A1190220A128A1149
:1006D8002630F4009130F5000A168A11B4220A1265
:1006E8008A11A02F3B302206031D7B2B7C2B902BDD
:1006F8000230F9007908F5000F300A168A119022A5
:100708000A128A114430F4009130F5000A168A1151
:10071800B4220A128A11A02F3C302206031D952B01
:10072800962BAA2B0230F9007908F5000F300A162B
:100738008A1190220A128A113930F4009030F5009B
:100748000A168A11B4220A128A11A02F3D302206F5
:10075800031DAF2BB02BC42B0230F9007908F5002C
:100768000F300A168A1190220A128A115730F400A3
:100778009030F5000A168A11B4220A128A11A02FA5
:100788003E302206031DC92BCA2BDE2B0230F9008E
:100798007908F5000F300A168A1190220A128A1178
:1007A8007530F4009030F5000A168A11B4220A1246
:1007B8008A11A02F3F302206031DE32BE42BF82BD0
:1007C8000230F9007908F5000F300A168A119022D4
:1007D8000A128A119330F4009030F5000A168A1133
:1007E800B4220A128A11A02F40302206031DFD2BC5
:1007F800FE2B122C0230F9007908F5000F300A168A
:100808008A1190220A128A11B130F4009030F50052
:100818000A168A11B4220A128A11A02F4130220620
:10082800031D172C182C2C2C0230F9007908F50020
:100838000F300A168A1190220A128A11CF30F4005A
:100848009030F5000A168A11B4220A128A11A02FD4
:1008580042302206031D312C322C462C0230F9007E
:100868007908F5000F300A168A1190220A128A11A7
:10087800ED30F4009030F5000A168A11B4220A12FD
:100888008A11A02F43302206031D4B2C4C2C602CC0
:100898000230F9007908F5000F300A168A11902203
:1008A8000A128A110B30F4009130F5000A168A11E9
:1008B800B4220A128A11A02F44302206031D652C87
:1008C800662C7A2C0230F9007908F5000F300A16E8
:1008D8008A1190220A128A112930F4009130F50009
:1008E8000A168A11B4220A128A11A02F453022064C
:1008F800031D7F2C802C942C0230F9007908F50018
:100908000F300A168A1190220A128A114730F40011
:100918009130F5000A168A11B4220A128A11A02F02
:1009280046302206031D992C9A2CAE2C0230F90071
:100938007908F5000F300A168A1190220A128A11D6
:100948003C30F4009030F5000A168A11B4220A12DD
:100958008A11A02F47302206031DB32CB42CC82CB3
:100968000230F9007908F5000F300A168A11902232
:100978000A128A115A30F4009030F5000A168A11CA
:10098800B4220A128A11A02F48302206031DCD2C4A
:10099800CE2CE22C0230F9007908F5000F300A1647
:1009A8008A1190220A128A117830F4009030F500EA
:1009B8000A168A11B4220A128A11A02F4930220677
:1009C800031DE72CE82CFC2C0230F9007908F5000F
:1009D8000F300A168A1190220A128A119630F400F2
:1009E8009030F5000A168A11B4220A128A11A02F33
:1009F8004A302206031D012D022D162D0230F90062
:100A08007908F5000F300A168A1190220A128A1105
:100A1800B430F4009030F5000A168A11B4220A1294
:100A28008A11A02F4B302206031D1B2D1C2D302DA3
:100A38000230F9007908F5000F300A168A11902261
:100A48000A128A11D230F4009030F5000A168A1181
:100A5800B4220A128A11A02F4C302206031D352D0C
:100A6800362D4A2D0230F9007908F5000F300A16A4
:100A78008A1190220A128A11F030F4009030F500A1
:100A88000A168A11B4220A128A11A02F4D302206A2
:100A9800031D4F2D502D642D0230F9007908F50003
:100AA8000F300A168A1190220A128A110E30F400A9
:100AB8009130F5000A168A11B4220A128A11A02F61
:100AC8004E302206031D692D6A2D7E2D0230F90055
:100AD8007908F5000F300A168A1190220A128A1135
:100AE8002C30F4009130F5000A168A11B4220A124B
:100AF8008A11A02F4F302206031D832D842D982D97
:100B08000230F9007908F5000F300A168A11902290
:100B18000A128A114A30F4009130F5000A168A1137
:100B2800B4220A128A11A02F50302206031D9D2DCF
:100B38009E2DB22D0230F9007908F5000F300A1603
:100B48008A1190220A128A113F30F4009030F50081
:100B58000A168A11B4220A128A11A02F51302206CD
:100B6800031DB72DB82DCC2D0230F9007908F500FA
:100B78000F300A168A1190220A128A115D30F40089
:100B88009030F5000A168A11B4220A128A11A02F91
:100B980052302206031DD12DD22DE62D0230F90048
:100BA8007908F5000F300A168A1190220A128A1164
:100BB8007B30F4009030F5000A168A11B4220A122C
:100BC8008A11A02F53302206031DEB2DEC2D002E89
:100BD8000230F9007908F5000F300A168A119022C0
:100BE8000A128A119930F4009030F5000A168A1119
:100BF800B4220A128A11A02F54302206031D052E92
:100C0800062E1A2E0230F9007908F5000F300A1660
:100C18008A1190220A128A11B730F4009030F50038
:100C28000A168A11B4220A128A11A02F55302206F8
:100C3800031D1F2E202E342E0230F9007908F500EE
:100C48000F300A168A1190220A128A11D530F40040
:100C58009030F5000A168A11B4220A128A11A02FC0
:100C680056302206031D392E3A2E4E2E0230F90038
:100C78007908F5000F300A168A1190220A128A1193
:100C8800F330F4009030F5000A168A11B4220A12E3
:100C98008A11A02F57302206031D532E542E682E7A
:100CA8000230F9007908F5000F300A168A119022EF
:100CB8000A128A111130F4009130F5000A168A11CF
:100CC800B4220A128A11A02F58302206031D6D2E55
:100CD8006E2E822E0230F9007908F5000F300A16C0
:100CE8008A1190220A128A112F30F4009130F500EF
:100CF8000A168A11B4220A128A11A02F5930220624
:100D0800031D872E882E9C2E0230F9007908F500E5
:100D18000F300A168A1190220A128A114D30F400F7
:100D28009130F5000A168A11B4220A128A11A02FEE
:100D38005A302206031DA12EA22EB62E0230F9002B
:100D48007908F5000F300A168A1190220A128A11C2
:100D58004230F4009030F5000A168A11B4220A12C3
:100D68008A11A02F5B302206031DBB2EBC2ED02E6D
:100D78000230F9007908F5000F300A168A1190221E
:100D88000A128A116030F4009030F5000A168A11B0
:100D9800B4220A128A11A02F5C302206031DD52E18
:100DA800D62EEA2E0230F9007908F5000F300A161F
:100DB8008A1190220A128A117E30F4009030F500D0
:100DC8000A168A11B4220A128A11A02F5D3022064F
:100DD800031DEF2EF02E042F0230F9007908F500DC
:100DE8000F300A168A1190220A128A119C30F400D8
:100DF8009030F5000A168A11B4220A128A11A02F1F
:100E08005E302206031D092F0A2F1E2F0230F9001B
:100E18007908F5000F300A168A1190220A128A11F1
:100E2800BA30F4009030F5000A168A11B4220A127A
:100E38008A11A02F5F302206031D232F242F382F5D
:100E48000230F9007908F5000F300A168A1190224D
:100E58000A128A11D830F4009030F5000A168A1167
:100E6800B4220A128A11A02F60302206031D3D2FDA
:100E78003E2F522F0230F9007908F5000F300A167C
:100E88008A1190220A128A11F630F4009030F50087
:100E98000A168A11B4220A128A11A02F613022067A
:100EA800031D572F582F6C2F0230F9007908F500D1
:100EB8000F300A168A1190220A128A111430F4008F
:100EC8009130F5000A168A11B4220A128A11A02F4D
:100ED80062302206031D712F722F862F0230F9000F
:100EE8007908F5000F300A168A1190220A128A1121
:100EF8003230F4009130F5000A168A11B4220A1231
:100F08008A11A02F63302206031D8B2F8C2FA02F50
:100F18000230F9007908F5000F300A168A1190227C
:100F28000A128A115030F4009130F5000A168A111D
:100F3800B4220A128A11A02F080083120313A200F8
:100F48002203031DA82FA92FBD2F0230F90079080D
:100F5800F50007300A168A1190220A128A111430F5
:100F6800F4009030F5000A168A11B4220A128A1188
:100F7800F02F02302206031DC22FC32FD72F0230B5
:100F8800F9007908F50007300A168A1190220A122A
:100F98008A110030F4009030F5000A168A11B42244
:100FA8000A128A11F02F03302206031DDC2FDD2FD1
:100FB800F02F0230F9007908F50007300A168A1177
:100FC80090220A128A111030F4009030F5000A16A7
:100FD8008A11B4220A128A110800F300831203133B
:100FE80007147308880087140D30F200F20BFA2FEB
:100FF800831203138710080083160313141C052893
:10100800062800280800831603178801890183161B
:1010180003138710071186018801831203138601C1
:101028008801071587148316031381130030831270
:101038000313AA000030A9002530A8008030A700BB
:101048000A168A110E240A128A15831603138901B7
:10105800831203138901FB01FB0A0914891409157A
:10106800F201F301F40120300A168A117A220A12D9
:101078008A150A168A11FA220A128A1508000A1213
:101088008A1507200A128A150A168A114A220A1294
:101098008A15F501F50A01300A168A1190220A12FA
:1010A8008A150430F4009030F5000A168A11B4222B
:1010B8000A128A15033083120313BA009730B90055
:1010C800B90B6428BA0B6428F501F50A06300A162C
:1010D8008A1190220A128A150830F4009030F5001F
:1010E8000A168A11B4220A128A15033083120313CE
:1010F800BA009730B900B90B7F28BA0B7F28F501E1
:10110800F50A0C300A168A1190220A128A150C3038
:10111800F4009030F5000A168A11B4220A128A15D2
:101128007B03031D98289928E928831203130910C3
:10113800033083120313BA009730B900B90BA22801
:10114800BA0BA22801300A168A113D220A128A1502
:10115800063083120313BA002F30B900B90BB22836
:10116800BA0BB228B7280A168A1151220A128A1510
:1011780083120313B9003908FA00063083120313E7
:10118800BA002F30B900B90BC728BA0BC728CC282A
:101198008312031309140230B9003908FB007A08D6
:1011A8000A128A11A1270A128A157A080A168A11C0
:1011B8005A220A128A15033083120313BA00973091
:1011C800B900B90BE528BA0BE52802307B06031DE8
:1011D800EE28EF2841298312031389100330831264
:1011E8000313BA009730B900B90BF828BA0BF828DE
:1011F80001300A168A113D220A128A150630831216
:101208000313BA002F30B900B90B0829BA0B082903
:101218000D290A168A1151220A128A1583120313FC
:10122800B9003908BC00063083120313BA002F3006
:10123800B900B90B1D29BA0B1D29222983120313E2
:1012480089140330B9003908FB003C080A128A15D2
:101258009B210A128A15831203133C080A168A1165
:101268005A220A128A15033083120313BA009730E0
:10127800B900B90B3D29BA0B3D2903307B06031D84
:10128800462947299428831203130911033083122E
:101298000313BA009730B900B90B5029BA0B50297B
:1012A80001300A168A113D220A128A150630831265
:1012B8000313BA002F30B900B90B6029BA0B6029A3
:1012C80065290A168A1151220A128A1583120313F4
:1012D800B9003908BB00063083120313BA002F3057
:1012E800B900B90B7529BA0B75297A29831203132A
:1012F8000915FB01FB0A3B080A168A11EB240A129E
:101308008A15831203133B080A168A115A220A12F5
:101318008A15033083120313BA009730B900B90B4A
:101328009329BA0B932994280A128A110C28F900D8
:10133800333079020318A129A229C2290230831265
:101348000313A2002208F50001300A168A11902220
:101358000A128A151830F4009030F5000A168A111E
:10136800B4220A128A15033083120313A30097309C
:10137800A200A20BBD29A30BBD29882A333079020C
:10138800031CC729C829F529673079020318CD2914
:10139800CE29F529023083120313A2002208F50092
:1013A80001300A168A1190220A128A151B30F4009D
:1013B8009030F5000A168A11B4220A128A150330F1
:1013C80083120313A3009730A200A20BE929A30BF1
:1013D800E9297908CD3E83120313A2002208F900F7
:1013E800882A67307902031CFA29FB29282A9A30AF
:1013F80079020318002A012A282A023083120313CB
:10140800A2002208F50001300A168A1190220A1259
:101418008A151E30F4009030F5000A168A11B4229D
:101428000A128A15033083120313A3009730A2000F
:10143800A20B1C2AA30B1C2A79089A3E83120313B9
:10144800A2002208F900882A9A307902031C2D2A62
:101458002E2A5B2ACD3079020318332A342A5B2AD4
:10146800023083120313A2002208F50001300A1685
:101478008A1190220A128A152130F4009030F50062
:101488000A168A11B4220A128A150330831203132A
:10149800A3009730A200A20B4F2AA30B4F2A79086A
:1014A800673E83120313A2002208F900882ACD3070
:1014B8007902031C602A612A882A023083120313E6
:1014C800A2002208F50001300A168A1190220A1299
:1014D8008A152430F4009030F5000A168A11B422D7
:1014E8000A128A15033083120313A3009730A2004F
:1014F800A20B7C2AA30B7C2A7908343E831203139F
:10150800A2002208F900882A7903031D8C2A8D2A53
:10151800A32A023083120313A2002208F500033025
:101528000A168A1190220A128A156430F400903043
:10153800F5000A168A11B4220A128A15FF2F023002
:101548007906031DA82AA92ABF2A02308312031389
:10155800A2002208F50003300A168A1190220A1206
:101568008A15A030F4009030F5000A168A11B422CA
:101578000A128A15FF2F03307906031DC42AC52ACB
:10158800DB2A023083120313A2002208F50003307D
:101598000A168A1190220A128A15DC30F40090305B
:1015A800F5000A168A11B4220A128A15FF2F043090
:1015B8007906031DE02AE12AF72A02308312031371
:1015C800A2002208F50003300A168A1190220A1296
:1015D8008A151830F4009130F5000A168A11B422E1
:1015E8000A128A15FF2F05307906031DFC2AFD2AE9
:1015F800132B023083120313A2002208F5000330D4
:101608000A168A1190220A128A152A30F40090309C
:10161800F5000A168A11B4220A128A15FF2F06301D
:101628007906031D182B192B2F2B02308312031355
:10163800A2002208F50003300A168A1190220A1225
:101648008A156630F4009030F5000A168A11B42223
:101658000A128A15FF2F07307906031D342B352B04
:101668004B2B023083120313A2002208F50003302B
:101678000A168A1190220A128A15A230F4009030B4
:10168800F5000A168A11B4220A128A15FF2F0830AB
:101698007906031D502B512B672B0230831203133D
:1016A800A2002208F50003300A168A1190220A12B5
:1016B8008A15DE30F4009030F5000A168A11B4223B
:1016C8000A128A15FF2F09307906031D6C2B6D2B22
:1016D800832B023083120313A2002208F500033083
:1016E8000A168A1190220A128A151A30F4009130CB
:1016F800F5000A168A11B4220A128A15FF2F0A3039
:101708007906031D882B892B9F2B02308312031324
:10171800A2002208F50003300A168A1190220A1244
:101728008A152D30F4009030F5000A168A11B4227B
:101738000A128A15FF2F0B307906031DA42BA52B3F
:10174800BB2B023083120313A2002208F5000330DA
:101758000A168A1190220A128A156930F40090300C
:10176800F5000A168A11B4220A128A15FF2F0C30C6
:101778007906031DC02BC12BD72B0230831203130C
:10178800A2002208F50003300A168A1190220A12D4
:101798008A15A530F4009030F5000A168A11B42293
:1017A8000A128A15FF2F0D307906031DDC2BDD2B5D
:1017B800F32B023083120313A2002208F500033032
:1017C8000A168A1190220A128A15E130F400903024
:1017D800F5000A168A11B4220A128A15FF2F0E3054
:1017E8007906031DF82BF92B0F2C023083120313F3
:1017F800A2002208F50003300A168A1190220A1264
:101808008A151D30F4009130F5000A168A11B422A9
:101818000A128A15FF2F0F307906031D142C152C78
:101828002B2C023083120313A2002208F500033088
:101838000A168A1190220A128A153030F400903064
:10184800F5000A168A11B4220A128A15FF2F1030E1
:101858007906031D302C312C472C023083120313D8
:10186800A2002208F50003300A168A1190220A12F3
:101878008A156C30F4009030F5000A168A11B422EB
:101888000A128A15FF2F11307906031D4C2C4D2C96
:10189800632C023083120313A2002208F5000330E0
:1018A8000A168A1190220A128A15A830F40090307C
:1018B800F5000A168A11B4220A128A15FF2F12306F
:1018C8007906031D682C692C7F2C023083120313C0
:1018D800A2002208F50003300A168A1190220A1283
:1018E8008A15E430F4009030F5000A168A11B42203
:1018F8000A128A15FF2F13307906031D842C852CB4
:101908009B2C023083120313A2002208F500033037
:101918000A168A1190220A128A152030F400913092
:10192800F5000A168A11B4220A128A15FF2F1430FC
:101938007906031DA02CA12CB72C023083120313A7
:10194800A2002208F50003300A168A1190220A1212
:101958008A153330F4009030F5000A168A11B42243
:101968000A128A15FF2F15307906031DBC2CBD2CD1
:10197800D32C023083120313A2002208F50003308F
:101988000A168A1190220A128A156F30F4009030D4
:10199800F5000A168A11B4220A128A15FF2F16308A
:1019A8007906031DD82CD92CEF2C0230831203138F
:1019B800A2002208F50003300A168A1190220A12A2
:1019C8008A15AB30F4009030F5000A168A11B4225B
:1019D8000A128A15FF2F17307906031DF42CF52CEF
:1019E8000B2D023083120313A2002208F5000330E6
:1019F8000A168A1190220A128A15E730F4009030EC
:101A0800F5000A168A11B4220A128A15FF2F183017
:101A18007906031D102D112D272D02308312031373
:101A2800A2002208F50003300A168A1190220A1231
:101A38008A152330F4009130F5000A168A11B42271
:101A48000A128A15FF2F19307906031D2C2D2D2D0A
:101A5800432D023083120313A2002208F50003303D
:101A68000A168A1190220A128A153630F40090302C
:101A7800F5000A168A11B4220A128A15FF2F1A30A5
:101A88007906031D482D492D5F2D0230831203135B
:101A9800A2002208F50003300A168A1190220A12C1
:101AA8008A157230F4009030F5000A168A11B422B3
:101AB8000A128A15FF2F1B307906031D642D652D28
:101AC8007B2D023083120313A2002208F500033095
:101AD8000A168A1190220A128A15AE30F400903044
:101AE800F5000A168A11B4220A128A15FF2F1C3033
:101AF8007906031D802D812D972D02308312031343
:101B0800A2002208F50003300A168A1190220A1250
:101B18008A15EA30F4009030F5000A168A11B422CA
:101B28000A128A15FF2F1D307906031D9C2D9D2D45
:101B3800B32D023083120313A2002208F5000330EC
:101B48000A168A1190220A128A152630F40091305A
:101B5800F5000A168A11B4220A128A15FF2F1E30C0
:101B68007906031DB82DB92DCF2D0230831203132A
:101B7800A2002208F50003300A168A1190220A12E0
:101B88008A153930F4009030F5000A168A11B4220B
:101B98000A128A15FF2F1F307906031DD42DD52D63
:101BA800EB2D023083120313A2002208F500033044
:101BB8000A168A1190220A128A157530F40090309C
:101BC800F5000A168A11B4220A128A15FF2F20304E
:101BD8007906031DF02DF12D072E02308312031311
:101BE800A2002208F50003300A168A1190220A1270
:101BF8008A15B130F4009030F5000A168A11B42223
:101C08000A128A15FF2F21307906031D0C2E0D2E7E
:101C1800232E023083120313A2002208F50003309A
:101C28000A168A1190220A128A15ED30F4009030B3
:101C3800F5000A168A11B4220A128A15FF2F2230DB
:101C48007906031D282E292E3F2E023083120313F6
:101C5800A2002208F50003300A168A1190220A12FF
:101C68008A152930F4009130F5000A168A11B42239
:101C78000A128A15FF2F23307906031D442E452E9C
:101C88005B2E023083120313A2002208F5000330F2
:101C98000A168A1190220A128A153C30F4009030F4
:101CA800F5000A168A11B4220A128A15FF2F243069
:101CB8007906031D602E612E772E023083120313DE
:101CC800A2002208F50003300A168A1190220A128F
:101CD8008A157830F4009030F5000A168A11B4227B
:101CE8000A128A15FF2F25307906031D7C2E7D2EBA
:101CF800932E023083120313A2002208F50003304A
:101D08000A168A1190220A128A15B430F40090300B
:101D1800F5000A168A11B4220A128A15FF2F2630F6
:101D28007906031D982E992EAF2E023083120313C5
:101D3800A2002208F50003300A168A1190220A121E
:101D48008A15F030F4009030F5000A168A11B42292
:101D58000A128A15FF2F27307906031DB42EB52ED7
:101D6800CB2E023083120313A2002208F5000330A1
:101D78000A168A1190220A128A152C30F400913022
:101D8800F5000A168A11B4220A128A15FF2F283084
:101D98007906031DD02ED12EE72E023083120313AD
:101DA800A2002208F50003300A168A1190220A12AE
:101DB8008A153F30F4009030F5000A168A11B422D3
:101DC8000A128A15FF2F29307906031DEC2EED2EF5
:101DD800032F023083120313A2002208F5000330F8
:101DE8000A168A1190220A128A157B30F400903064
:101DF800F5000A168A11B4220A128A15FF2F2A3012
:101E08007906031D082F092F1F2F02308312031391
:101E1800A2002208F50003300A168A1190220A123D
:101E28008A15B730F4009030F5000A168A11B422EA
:101E38000A128A15FF2F2B307906031D242F252F10
:101E48003B2F023083120313A2002208F50003304F
:101E58000A168A1190220A128A15F330F40090307B
:101E6800F5000A168A11B4220A128A15FF2F2C309F
:101E78007906031D402F412F572F02308312031379
:101E8800A2002208F50003300A168A1190220A12CD
:101E98008A152F30F4009130F5000A168A11B42201
:101EA8000A128A15FF2F2D307906031D5C2F5D2F2E
:101EB800732F023083120313A2002208F5000330A7
:101EC8000A168A1190220A128A154230F4009030BC
:101ED800F5000A168A11B4220A128A15FF2F2E302D
:101EE8007906031D782F792F8F2F02308312031361
:101EF800A2002208F50003300A168A1190220A125D
:101F08008A157E30F4009030F5000A168A11B42242
:101F18000A128A15FF2F2F307906031D942F952F4B
:101F2800AB2F023083120313A2002208F5000330FE
:101F38000A168A1190220A128A15BA30F4009030D3
:101F4800F5000A168A11B4220A128A15FF2F3030BA
:101F58007906031DB02FB12FC72F02308312031348
:101F6800A2002208F50003300A168A1190220A12EC
:101F78008A15F630F4009030F5000A168A11B4225A
:101F88000A128A15FF2F31307906031DCC2FCD2F69
:101F9800E32F023083120313A2002208F500033056
:101FA8000A168A1190220A128A153230F4009130EA
:101FB800F5000A168A11B4220A128A15FF2F323048
:101FC8007906031DE82FE92FFF2F02308312031330
:101FD800A2002208F50003300A168A1190220A127C
:101FE8008A155030F4009130F5000A168A11B4228F
:101FF8000A128A15FF2F08004F344B34203400345E
:10200800533431343A340034533432343A340034AB
:10201800533433343A34003448344F34543400346D
:102028004C344F345734003430342E340034313487
:102038002E34003432342E34003433342E34003409
:1020480034342E34003430343034003431343034C5
:1020580000343234303400343334303400343434DF
:1020680030340034353430340034363430340034CD
:102078003734303400343834303400343934303480
:1020880000343034313400343134313400343234B3
:10209800313400343334313400343434313400349E
:1020A8003534313400343634313400343734313453
:1020B8000034383431340034393431340034303475
:1020C800323400343134323400343234323400346F
:1020D8003334323400343434323400343534323426
:1020E800003436343234003437343234003438343F
:1020F8003234003439343234003430343334003438
:1021080031343334003432343334003433343334F8
:102118000034343433340034353433340034363412
:1021280033340034373433340034383433340034FF
:1021380039343334003430343434003431343434C2
:1021480000343234343400343334343400343434E6
:1021580034340034353434340034363434340034D0
:102168003734343400343834343400343934343483
:1021780000343034353400343134353400343234BA
:1021880035340034333435340034343435340034A1
:102198003534353400343634353400343734353456
:1021A800003438343534003439343534003430347C
:1021B8003634003431343634003432343634003472
:1021C8003334363400343434363400343534363429
:1021D8000034363436340034373436340034383446
:1021E800363400343934363400343034373400343B
:1021F80031343734003432343734003433343734FC
:102208000034343437340034353437340034363419
:102218003734003437343734003438343734003402
:1022280039343734003430343834003431343834C5
:1022380000343234383400343334383400343434ED
:1022480038340034353438340034363438340034D3
:102258003734383400343834383400343934383486
:1022680000343034393400343134393400343234C1
:1022780039340034333439340034343439340034A4
:102288003534393400343634393400343734393459
:102298000034383439340034393439340034FF1BCD
:1022A8005D2983137F1883170008840A0319FF0A1E
:1022B80008007F087F398A000408840A0319FF0A86
:0222C800820092
:10247A00F2007208831203139300080071088A009D
:10248A00700E8300FE0E7E0E090001300A168A11B4
:10249A0066220A168A1108000A128A1500200A16EC
:1024AA008A118312031313080800F2008316031318
:1024BA00981C602A612A5B2A720883120313990006
:1024CA000800F400831203130710740888008714A5
:1024DA000630F3003030F200F20B712AF30B712A46
:1024EA0000008312031387100800F50083160313F4
:1024FA008712751D812A822A862A740894008715F4
:10250A008A2A720874049400871175087304831266
:10251A00031394000800F7007503031D952A962AF1
:10252A00A22A77087F3EF6007608F80078080A168D
:10253A008A1166220A168A11B32A02307506031D09
:10254A00A72AA82AB32A7708BF3EF6007608F80019
:10255A0078080A168A1166220A168A110800831256
:10256A000313A001A101DD2A20087407F7007508EA
:10257A00F6000318F60AA01FC32AF6037608F80025
:10258A00780883120313FF00770884000A168A1159
:10259A0053210A168A110A128A11F1270A168A1178
:1025AA00013083120313A0070318A10A0030A10700
:1025BA0020087407F7007508F6000318F60AA01F2A
:1025CA00E72AF6037608F800780883120313FF0057
:1025DA00770884000A168A1153210A168A11003ACA
:1025EA00031DF82AF92AB92A080083160313880159
:1025FA0083120313880183160313071087101A30F6
:10260A00F600F830F500F50B082BF60B082B000046
:10261A0083120313071030300A168A1166220A162B
:10262A008A110830F600C930F500F50B1A2BF60BA3
:10263A001A2B1F2B30300A168A1166220A168A11A3
:10264A000F30F6004730F500F50B292BF60B292B36
:10265A002E2B30300A168A1166220A168A11033086
:10266A00F6009730F500F50B382BF60B382B3D2B7F
:10267A0038300A168A1166220A168A110330F600C1
:10268A009730F500F50B472BF60B472B4C2B0C30EC
:10269A000A168A1166220A168A110330F600973042
:1026AA00F500F50B562BF60B562B5B2B01300A1651
:1026BA008A1166220A168A110330F6009730F5004D
:1026CA00F50B652BF60B652B6A2B06300A168A1159
:1026DA0066220A168A11080083120313A201F51F43
:1026EA00772B782B852BF209F309F409F509F20AFD
:1026FA000319F30A0319F40A0319F50AA201A20A33
:10270A00F91F882B892B982BF609F709F809F9097B
:10271A00F60A0319F70A0319F80A0319F90A013024
:10272A00A0002008A2060030A6000030A500003054
:10273A00A4000030A300750874047304720403191A
:10274A00A72BA82BF52BA101A10AB82B0130A000B9
:10275A000310F20DF30DF40DF50DA00BAD2B0130A6
:10276A00A0002008A107F51FBB2BBC2BAB2B013007
:10277A00A0000310A30DA40DA50DA60DA00BBE2B42
:10278A0075087902031DD32B74087802031DD32B15
:10279A0073087702031DD32B72087602031CD62B0B
:1027AA00D72BE62B7208F6027308031C730FF70285
:1027BA007408031C740FF8027508031C750FF902DC
:1027CA00231401300310F50CF40CF30CF20CFF3E49
:1027DA00031DE72B0130A102031DF42BF52BBC2BA3
:1027EA0022080319F92BFA2B052CA309A409A50918
:1027FA00A609A30A0319A40A0319A50A0319A60A12
:10280A002608F5002508F4002408F3002308F2003E
:10281A000800831203132708AB002808AC00290814
:10282A00AD002A08AE0006300310AB0DAC0DAD0D9D
:10283A00AE0DFF3E031D192C2E08F5002D08F400DD
:10284A002C08F3002B08F2002708AF002808B00074
:10285A002908B1002A08B20006300310AF0DB00DE6
:10286A00B10DB20DFF3E031D322C0030B300123001
:10287A00B4007A30B5000030B6002F08B302300831
:10288A00031C300F492C4A2CB4023108031C310FA7
:10289A004F2C502CB5023208031C320F552C562CE3
:1028AA00B6023608F9003508F8003408F70033088C
:1028BA00F6000A168A1171230A168A1173088312FE
:1028CA000313B8007208B700013038020030031948
:1028DA003702031C712C722CCE2C2708AB00280857
:1028EA00AC002908AD002A08AE0004300310AB0D75
:1028FA00AC0DAD0DAE0DFF3E031D7B2C2E08F50071
:10290A002D08F4002C08F3002B08F2002708AF006A
:10291A002808B0002908B1002A08B20004300310C0
:10292A00AF0DB00DB10DB20DFF3E031D942C00305A
:10293A00B3001230B4007A30B5000030B6002F0868
:10294A00B3023008031C300FAB2CAC2CB402310894
:10295A00031C310FB12CB22CB5023208031C320F02
:10296A00B72CB82CB6023608F9003508F800340836
:10297A00F7003308F6000A168A1171230A168A111B
:10298A00730883120313B8007208B700831603137F
:10299A001815013083123802003003193702031860
:1029AA00D72CD82CEA2C370883160313990018124F
:1029BA0083120313981783160313871707178312B3
:1029CA0003131816831603139816080083120313A9
:1029DA00A200643022020318F32CF42C082D0230D2
:1029EA00F9007908F5000E300A168A1190220A16A3
:1029FA008A112830F4009030F5000A168A11B422A0
:102A0A000A168A114F2D64302202031C0D2D0E2D39
:102A1A002F2DC83022020318132D142D2F2D02300A
:102A2A00F9007908F5000E300A168A1190220A1662
:102A3A008A114630F4009030F5000A168A11B42241
:102A4A000A168A118312031322089C3EF900790898
:102A5A00A2004F2DC8302202031C342D352D4F2DD4
:102A6A000230F9007908F5000E300A168A11902210
:102A7A000A168A116430F4009030F5000A168A1199
:102A8A00B4220A168A11831203132208383EF90067
:102A9A007908A200831203132208031D552D562D0F
:102AAA00692D0230F9007908F5000F300A168A11EB
:102ABA0090220A168A112730F4009030F5000A167F
:102ACA008A11B4220A168A11831203132203031DE0
:102ADA006F2D702D862D0230F9007908F5000F3020
:102AEA000A168A1190220A168A114530F40090308B
:102AFA00F5000A168A11B4220A168A110A128A11D4
:102B0A00A02F02302206031D8B2D8C2DA02D023002
:102B1A00F9007908F5000F300A168A1190220A1670
:102B2A008A116330F4009030F5000A168A11B42233
:102B3A000A168A11832D03302206031DA52DA62D00
:102B4A00BA2D0230F9007908F5000F300A168A11F9
:102B5A0090220A168A118130F4009030F5000A1684
:102B6A008A11B4220A168A11832D04302206031D03
:102B7A00BF2DC02DD42D0230F9007908F5000F3091
:102B8A000A168A1190220A168A119F30F400903090
:102B9A00F5000A168A11B4220A168A11832D053005
:102BAA002206031DD92DDC2D0A168A11F82E0230B1
:102BBA00F9007908F5000F300A168A1190220A16D0
:102BCA008A11BD30F4009030F5000A168A11B42239
:102BDA000A168A11832D10302206031DF52DF62DB3
:102BEA000C2E0230F9007908F5000F300A168A1106
:102BFA0090220A168A11DE30F4009030F5000A1687
:102C0A008A11B4220A168A110A128A11A02F1130C7
:102C1A002206031D112E122E262E0230F9007908E3
:102C2A00F5000F300A168A1190220A168A11FC3012
:102C3A00F4009030F5000A168A11B4220A168A1195
:102C4A00092E12302206031D2B2E2C2E402E023066
:102C5A00F9007908F5000F300A168A1190220A162F
:102C6A008A111A30F4009130F5000A168A11B4223A
:102C7A000A168A11092E13302206031D452E462EE6
:102C8A005A2E0230F9007908F5000F300A168A1117
:102C9A0090220A168A113830F4009130F5000A168B
:102CAA008A11B4220A168A11092E14302206031D2B
:102CBA005F2E602E742E0230F9007908F5000F306D
:102CCA000A168A1190220A168A112D30F4009030C1
:102CDA00F5000A168A11B4220A168A11092E15302D
:102CEA002206031D792E7A2E8E2E0230F9007908DB
:102CFA00F5000F300A168A1190220A168A114B30F3
:102D0A00F4009030F5000A168A11B4220A168A11C4
:102D1A00092E16302206031D932E942EA82E023059
:102D2A00F9007908F5000F300A168A1190220A165E
:102D3A008A116930F4009030F5000A168A11B4221B
:102D4A000A168A11092E17302206031DAD2EAE2E41
:102D5A00C22E0230F9007908F5000F300A168A11DE
:102D6A0090220A168A118730F4009030F5000A166C
:102D7A008A11B4220A168A11092E18302206031D56
:102D8A00C72EC82EDC2E0230F9007908F5000F3064
:102D9A000A168A1190220A168A11A530F400903078
:102DAA00F5000A168A11B4220A168A11092E193058
:102DBA002206031DE12EE42E0A128A111C28023073
:102DCA00F9007908F5000F300A168A1190220A16BE
:102DDA008A11C330F4009030F5000A168A11B42221
:102DEA000A168A11092E06302206031DFD2EFE2E12
:102DFA00142F0230F9007908F5000F300A168A11EB
:102E0A0090220A168A11DB30F4009030F5000A1677
:102E1A008A11B4220A168A110A128A11A02F0730BF
:102E2A002206031D192F1A2F2E2F0230F9007908B6
:102E3A00F5000F300A168A1190220A168A11F93003
:102E4A00F4009030F5000A168A11B4220A168A1183
:102E5A00112F08302206031D332F342F482F02303A
:102E6A00F9007908F5000F300A168A1190220A161D
:102E7A008A111730F4009130F5000A168A11B4222B
:102E8A000A168A11112F09302206031D4D2F4E2FC3
:102E9A00622F0230F9007908F5000F300A168A11FC
:102EAA0090220A168A113530F4009130F5000A167C
:102EBA008A11B4220A168A11112F0A302206031D1A
:102ECA00672F682F7C2F0230F9007908F5000F3040
:102EDA000A168A1190220A168A112A30F4009030B2
:102EEA00F5000A168A11B4220A168A11112F0B301C
:102EFA002206031D812F822F962F0230F9007908AE
:102F0A00F5000F300A168A1190220A168A114830E3
:102F1A00F4009030F5000A168A11B4220A168A11B2
:102F2A00112F0C302206031D9B2F9C2FB02F02302D
:102F3A00F9007908F5000F300A168A1190220A164C
:102F4A008A116630F4009030F5000A168A11B4220C
:102F5A000A168A11112F0D302206031DB52FB62F1E
:102F6A00CA2F0230F9007908F5000F300A168A11C3
:102F7A0090220A168A118430F4009030F5000A165D
:102F8A008A11B4220A168A11112F0E302206031D45
:102F9A00CF2FD02FE42F0230F9007908F5000F3037
:102FAA000A168A1190220A168A11A230F400903069
:102FBA00F5000A168A11B4220A168A11112F0F3047
:102FCA002206031DE92FEC2F0A168A11F02D023072
:102FDA00F9007908F5000F300A168A1190220A16AC
:102FEA008A11C030F4009030F5000A168A11B42212
:062FFA000A168A11112FD6
:04400E00F420FF3F5C
:00000001FF
