:020000040000FA
:060000000A128A110C280F
:10000800FE00030EF0000A08F1000A128A15302ECD
:100018000A128A110F28FA01FB0183120313A501A2
:10002800A601A701A80183010A128A15EA2E8312E4
:100038000313A200333022020318232824283F2860
:100048000230F9007908F50001300A128A15802675
:100058000A128A110E30F4008830F5000A128A1547
:10006800A4260A128A11C730F9003A28F90B392850
:100078003D283E28F12833302202031C4428452815
:100088006D286730220203184A284B286D28023051
:10009800F9007908F50001300A128A1580260A123B
:1000A8008A111130F4008830F5000A128A15A42646
:1000B8000A128A11C730F9006128F90B60286428F0
:1000C8006528831203132208CD3EF9007908A2009F
:1000D800F12867302202031C722873289B289A3063
:1000E80022020318782879289B280230F900790819
:1000F800F50001300A128A1580260A128A11143076
:10010800F4008830F5000A128A15A4260A128A110A
:10011800C730F9008F28F90B8E289228932883126C
:10012800031322089A3EF9007908A200F1289A30B0
:100138002202031CA028A128C928CD3022020318B6
:10014800A628A728C9280230F9007908F500013047
:100158000A128A1580260A128A111730F40088308C
:10016800F5000A128A15A4260A128A11C730F90066
:10017800BD28F90BBC28C028C12883120313220804
:10018800673EF9007908A200F128CD302202031C4D
:10019800CE28CF28F1280230F9007908F50001307F
:1001A8000A128A1580260A128A111A30F400883039
:1001B800F5000A128A15A4260A128A11C730F90016
:1001C800E528F90BE428E828E92883120313220814
:1001D800343EF9007908A200F128831203132203A0
:1001E800031DF728F8280C290230F9007908F500D2
:1001F80003300A128A1580260A128A11E630F400A2
:100208008730F5000A128A15A4260A128A11062ECA
:1002180002302206031D1129122926290230F9006D
:100228007908F50003300A128A1580260A128A1105
:10023800EA30F4008730F5000A128A15A4260A125B
:100248008A11062E03302206031D2B292C2940294A
:100258000230F9007908F50003300A128A15802661
:100268000A128A11EE30F4008730F5000A128A1556
:10027800A4260A128A11062E04302206031D4529D7
:1002880046295A290230F9007908F50003300A1284
:100298008A1580260A128A11F230F4008730F50098
:1002A8000A128A15A4260A128A11062E0530220679
:1002B800031D5F29602974290230F9007908F500C7
:1002C80003300A128A1580260A128A110030F400B7
:1002D8008730F5000A128A15A4260A128A11062EFA
:1002E80006302206031D79297A298E290230F90061
:1002F8007908F50003300A128A1580260A128A1135
:100308002D30F4008730F5000A128A15A4260A1247
:100318008A11062E07302206031D93299429A8293D
:100328000230F9007908F50003300A128A15802690
:100338000A128A115A30F4008730F5000A128A1519
:10034800A4260A128A11062E08302206031DAD299A
:10035800AE29C2290230F9007908F50003300A12E3
:100368008A1580260A128A118730F4008730F50032
:100378000A128A15A4260A128A11062E09302206A4
:10038800031DC729C829DC290230F9007908F500BE
:1003980003300A128A1580260A128A11B430F40032
:1003A8008730F5000A128A15A4260A128A11062E29
:1003B8000A302206031DE129E229F6290230F90054
:1003C8007908F50003300A128A1580260A128A1164
:1003D8000530F4008730F5000A128A15A4260A129F
:1003E8008A11062E0B302206031DFB29FC29102A30
:1003F8000230F9007908F50003300A128A158026C0
:100408000A128A113230F4008730F5000A128A1570
:10041800A4260A128A11062E0C302206031D152A5C
:10042800162A2A2A0230F9007908F50003300A1240
:100438008A1580260A128A115F30F4008730F50089
:100448000A128A15A4260A128A11062E0D302206CF
:10045800031D2F2A302A442A0230F9007908F500B2
:1004680003300A128A1580260A128A118C30F40089
:100478008730F5000A128A15A4260A128A11062E58
:100488000E302206031D492A4A2A5E2A0230F90044
:100498007908F50003300A128A1580260A128A1193
:1004A800B930F4008730F5000A128A15A4260A121A
:1004B8008A11062E0F302206031D632A642A782A21
:1004C8000230F9007908F50003300A128A158026EF
:1004D8000A128A110A30F4008730F5000A128A15C8
:1004E800A4260A128A11062E10302206031D7D2A20
:1004F8007E2A922A0230F9007908F50003300A12A0
:100508008A1580260A128A113730F4008730F500E0
:100518000A128A15A4260A128A11062E11302206FA
:10052800031D972A982AAC2A0230F9007908F500A9
:1005380003300A128A1580260A128A116430F400E0
:100548008730F5000A128A15A4260A128A11062E87
:1005580012302206031DB12AB22AC62A0230F90037
:100568007908F50003300A128A1580260A128A11C2
:100578009130F4008730F5000A128A15A4260A1271
:100588008A11062E13302206031DCB2ACC2AE02A14
:100598000230F9007908F50003300A128A1580261E
:1005A8000A128A11BE30F4008730F5000A128A1543
:1005B800A4260A128A11062E14302206031DE52AE3
:1005C800E62AFA2A0230F9007908F50003300A12FF
:1005D8008A1580260A128A110F30F4008730F50038
:1005E8000A128A15A4260A128A11062E1530220626
:1005F800031DFF2A002B142B0230F9007908F5009F
:1006080003300A128A1580260A128A113C30F40037
:100618008730F5000A128A15A4260A128A11062EB6
:1006280016302206031D192B1A2B2E2B0230F90027
:100638007908F50003300A128A1580260A128A11F1
:100648006930F4008730F5000A128A15A4260A12C8
:100658008A11062E17302206031D332B342B482B04
:100668000230F9007908F50003300A128A1580264D
:100678000A128A119630F4008730F5000A128A159A
:10068800A4260A128A11062E18302206031D4D2BA5
:100698004E2B622B0230F9007908F50003300A125C
:1006A8008A1580260A128A11C330F4008730F500B3
:1006B8000A128A15A4260A128A11062E1930220651
:1006C800031D672B682B7C2B0230F9007908F50095
:1006D80003300A128A1580260A128A111430F4008F
:1006E8008730F5000A128A15A4260A128A11062EE6
:1006F8001A302206031D812B822B962B0230F9001B
:100708007908F50003300A128A1580260A128A1120
:100718004130F4008730F5000A128A15A4260A121F
:100728008A11062E1B302206031D9B2B9C2BB02BF7
:100738000230F9007908F50003300A128A1580267C
:100748000A128A116E30F4008730F5000A128A15F1
:10075800A4260A128A11062E1C302206031DB52B68
:10076800B62BCA2B0230F9007908F50003300A12BB
:100778008A1580260A128A119B30F4008730F5000A
:100788000A128A15A4260A128A11062E1D3022067C
:10079800031DCF2BD02BE42B0230F9007908F5008C
:1007A80003300A128A1580260A128A11C830F4000A
:1007B8008730F5000A128A15A4260A128A11062E15
:1007C8001E302206031DE92BEA2BFE2B0230F9000E
:1007D8007908F50003300A128A1580260A128A1150
:1007E8001930F4008730F5000A128A15A4260A1277
:1007F8008A11062E1F302206031D032C042C182CE8
:100808000230F9007908F50003300A128A158026AB
:100818000A128A114630F4008730F5000A128A1548
:10082800A4260A128A11062E20302206031D1D2C2A
:100838001E2C322C0230F9007908F50003300A1218
:100848008A1580260A128A117330F4008730F50061
:100858000A128A15A4260A128A11062E21302206A7
:10086800031D372C382C4C2C0230F9007908F50080
:1008780003300A128A1580260A128A11A030F40061
:100888008730F5000A128A15A4260A128A11062E44
:1008980022302206031D512C522C662C0230F900FE
:1008A8007908F50003300A128A1580260A128A117F
:1008B800CD30F4008730F5000A128A15A4260A12F2
:1008C8008A11062E23302206031D6B2C6C2C802CDB
:1008D8000230F9007908F50003300A128A158026DB
:1008E8000A128A111E30F4008730F5000A128A15A0
:1008F800A4260A128A11062E24302206031D852CEE
:10090800862C9A2C0230F9007908F50003300A1277
:100918008A1580260A128A114B30F4008730F500B8
:100928000A128A15A4260A128A11062E25302206D2
:10093800031D9F2CA02CB42C0230F9007908F50077
:1009480003300A128A1580260A128A117830F400B8
:100958008730F5000A128A15A4260A128A11062E73
:1009680026302206031DB92CBA2CCE2C0230F900F1
:100978007908F50003300A128A1580260A128A11AE
:10098800A530F4008730F5000A128A15A4260A1249
:100998008A11062E27302206031DD32CD42CE82CCE
:1009A8000230F9007908F50003300A128A1580260A
:1009B8000A128A11D230F4008730F5000A128A151B
:1009C800A4260A128A11062E28302206031DED2CB1
:1009D800EE2C022D0230F9007908F50003300A12D6
:1009E8008A1580260A128A112330F4008730F50010
:1009F8000A128A15A4260A128A11062E29302206FE
:100A0800031D072D082D1C2D0230F9007908F5006B
:100A180003300A128A1580260A128A115030F4000F
:100A28008730F5000A128A15A4260A128A11062EA2
:100A38002A302206031D212D222D362D0230F900E1
:100A48007908F50003300A128A1580260A128A11DD
:100A58007D30F4008730F5000A128A15A4260A12A0
:100A68008A11062E2B302206031D3B2D3C2D502DBE
:100A78000230F9007908F50003300A128A15802639
:100A88000A128A11AA30F4008730F5000A128A1572
:100A9800A4260A128A11062E2C302206031D552D73
:100AA800562D6A2D0230F9007908F50003300A1234
:100AB8008A1580260A128A11D730F4008730F5008B
:100AC8000A128A15A4260A128A11062E2D30220629
:100AD800031D6F2D702D842D0230F9007908F50063
:100AE80003300A128A1580260A128A112830F40067
:100AF8008730F5000A128A15A4260A128A11062ED2
:100B08002E302206031D892D8A2D9E2D0230F900D4
:100B18007908F50003300A128A1580260A128A110C
:100B28005530F4008730F5000A128A15A4260A12F7
:100B38008A11062E2F302206031DA32DA42DB82DB1
:100B48000230F9007908F50003300A128A15802668
:100B58000A128A118230F4008730F5000A128A15C9
:100B6800A4260A128A11062E30302206031DBD2D36
:100B7800BE2DD22D0230F9007908F50003300A1293
:100B88008A1580260A128A11AF30F4008730F500E2
:100B98000A128A15A4260A128A11062E3130220654
:100BA800031DD72DD82DEC2D0230F9007908F5005A
:100BB80003300A128A1580260A128A11DC30F400E2
:100BC8008730F5000A128A15A4260A128A11062E01
:100BD80032302206031DF12DF22D062E0230F900C7
:100BE8007908F50003300A128A1580260A128A113C
:100BF800E130F4008730F5000A128A15A4260A129B
:100C08008A11062E08008316031388018312031322
:100C1800880183160313071087101A30F600F8307E
:100C2800F500F50B152EF60B152E00008312031395
:100C3800071030300A128A1556260A128A1108300F
:100C4800F600C930F500F50B272EF60B272E2C2EB3
:100C580030300A128A1556260A128A110F30F60009
:100C68004730F500F50B362EF60B362E3B2E30307E
:100C78000A128A1556260A128A110330F60097308E
:100C8800F500F50B452EF60B452E4A2E38300A1284
:100C98008A1556260A128A110330F6009730F50095
:100CA800F50B542EF60B542E592E0C300A128A15B9
:100CB80056260A128A110330F6009730F500F50B14
:100CC800632EF60B632E682E01300A128A155626FB
:100CD8000A128A110330F6009730F500F50B722ED0
:100CE800F60B722E772E06300A128A1556260A122D
:100CF8008A11080083120313A2002203031D852E04
:100D0800862E9A2E0230F9007908F50007300A126B
:100D18008A1580260A128A110A30F4008830F500F4
:100D28000A128A15A4260A128A11CD2E023022062A
:100D3800031D9F2EA02EB42E0230F9007908F5006D
:100D480007300A128A1580260A128A11F630F40032
:100D58008730F5000A128A15A4260A128A11CD2EA8
:100D680003302206031DB92EBA2ECD2E0230F9000B
:100D78007908F50007300A128A1580260A128A11A6
:100D88000630F4008830F5000A128A15A4260A12E3
:100D98008A11080083160317880189018316031333
:100DA80087100711860188018312031386018801C1
:100DB8000715871483160313890183120313890106
:100DC800A901A90A091489140915F201F301F4010A
:100DD80020300A128A156A260A128A110A128A1102
:100DE80007260A128A11080083160313141CFD2E05
:060DF800FE2EF82E08009B
:100E00000934313430340934003409343234303464
:100E100009340034093433343034093400340934AB
:100E2000343430340934003409343534303409343E
:100E3000003409343634303409340034093437345A
:100E4000303409340034093438343034093400344F
:100E5000093439343034093400340934313432340B
:100E6000093400340934323432340934003409345A
:100E700033343234093400340934343432340934EC
:100E8000003409343534323409340034093436340A
:100E900032340934003409343734323409340034FC
:100EA00009343834323409340034093439343234B2
:100EB0000934003409343134343409340034093409
:100EC000323434340934003409343334343409349A
:100ED00000340934343434340934003409343534BA
:100EE00034340934003409343634343409340034A9
:100EF0000934373434340934003409343834343460
:100F000009340034093439343434093400340934B0
:100F10003134363409340034093432343634093447
:100F20000034093433343634093400340934343469
:100F30003634093400340934353436340934003455
:100F4000093436343634093400340934373436340D
:100F5000093400340934383436340934003409345F
:100F600039343634093400340934313438340934EE
:100F70000034093432343834093400340934333419
:100F80003834093400340934343438340934003402
:100F900009343534383409340034093436343834BB
:100FA000093400340934373438340934003409340E
:100FB0003834383409340034093439343834093495
:100FC00000340934393439340934003409343234C2
:100FD00009340034093434340934003409343634E3
:100FE0000934003409343834093400344F344B3474
:100FF00020340034533431343A34003453343234EE
:101000003A340034533433343A34003448344F34AF
:10101000543400344C344F345734003430342E348C
:10102000003431342E34003432342E34003433342E
:101030002E34003434342E340034FF1B272883131D
:101040007F1883170008840A0319FF0A08007F0825
:0E1050007F398A000408840A0319FF0A82000F
:101C5400F2007208831203139300080071088A00CB
:101C6400700E8300FE0E7E0E090001300A128A15E2
:101C740056260A128A1508000A128A11F8260A1230
:101C84008A158312031313080800F3008312031345
:101C940007147308880087140D30F200F20B502EDD
:101CA4008312031387100800F40083120313071030
:101CB4007408880087140630F3003030F200F20B09
:101CC400612EF30B612E00008312031387100800AA
:101CD400F500831603138712751D712E722E762E4E
:101CE4007408940087157A2E72087404940087117E
:101CF400750873048312031394000800F700750336
:101D0400031D852E862E922E77087F3EF6007608D8
:101D1400F80078080A128A1556260A128A15A32E84
:101D240002307506031D972E982EA32E7708BF3E0A
:101D3400F6007608F80078080A128A1556260A1260
:101D44008A15080083120313A001A101CD2E2008D7
:101D54007407F7007508F6000318F60AA01FB32EDF
:101D6400F6037608F800780883120313FF00770857
:101D740084000A128A151D200A128A150A128A156D
:101D840047260A128A15013083120313A007031889
:101D9400A10A0030A10720087407F7007508F600AF
:101DA4000318F60AA01FD72EF6037608F800780861
:101DB40083120313FF00770884000A128A151D207A
:101DC4000A128A15003A031DE82EE92EA92E0800EE
:101DD4000A128A11CE260A128A150A128A15372681
:101DE4000A128A15F501F50A01300A128A158026AD
:101DF4000A128A15FA30F4008730F5000A128A159F
:101E0400A4260A128A15C73083120313A3000A2FCB
:101E1400A30B092F0D2FF501F50A06300A128A15B6
:101E240080260A128A15FE30F4008730F5000A1263
:101E34008A15A4260A128A15C73083120313A30035
:101E4400232FA30B222F262FF501F50A0C300A129B
:101E54008A1580260A128A150230F4008830F500AB
:101E64000A128A15A4260A128A1583120313290357
:101E7400031D3D2F3E2F782F0910C7308312031303
:101E8400A300442FA30B432F472F01300A128A15B6
:101E94002A260A128A15033083120313A4009730EA
:101EA400A300A30B532FA40B532F0A128A153E260B
:101EB4000A128A1583120313A3002308FB000330BC
:101EC40083120313A4009730A300A30B672FA40B62
:101ED400672F8312031309140230A3002308A900F7
:101EE4007B080A128A117E260A128A15023083128E
:101EF40003132906031D7F2F802FC22F8910C7309B
:101F040083120313A300862FA30B852F892F01307F
:101F14000A128A152A260A128A1503308312031319
:101F2400A4009730A300A30B952FA40B952F0A129E
:101F34008A153E260A128A1583120313A300230866
:101F4400FA00033083120313A4009730A300A30BF9
:101F5400A92FA40BA92F8312031389140330A30000
:101F64002308A9007A080A128A111B200A128A156A
:101F7400C73083120313A300BF2FA30BBE2FC22F9E
:101F84000330831203132906031DC92FCA2F372FC9
:101F94000911C73083120313A300D02FA30BCF2F33
:101FA400D32F01300A128A152A260A128A15033001
:101FB40083120313A4009730A300A30BDF2FA40BF9
:101FC400DF2F0A128A153E260A128A15831203137A
:101FD400A3002308A500033083120313A400973041
:101FE400A300A30BF32FA40BF32F831203130915E0
:0C1FF400A901A90A372F0A128A110C2833
:04400E00F420FF3F5C
:00000001FF
