:020000040000FA
:060000000A128A110C280F
:10000800FE00030EF0000A08F1000A128A116C2A99
:100018000A128A110F28F901FA01FB01831203134E
:10002800A001A101A20183010A128A111B280A1248
:100038008A11AD210A128A110A128A1165220A123E
:100048008A11F501F50A01300A128A11D7210A121C
:100058008A110130F4008030F5000A128A117D21DE
:100068000A128A11C73083120313A3003B28A30B7B
:100078003A283E28F501F50A06300A128A11D721D6
:100088000A128A110530F4008030F5000A128A112C
:100098007D210A128A11C73083120313A300542842
:1000A800A30B53285728F501F50A0C300A128A11B8
:1000B800D7210A128A110930F4008030F5000A129B
:1000C8008A117D210A128A1183120313A501A50A38
:1000D8000910C73083120313A3007228A30B7128D9
:1000E800752801300A128A1173220A128A110A121B
:1000F8008A1155220A128A1183120313A3002308B6
:10010800F900C73083120313A3008A28A30B892898
:100118008D288312031309140230A3002308A500B5
:100128000230A3002308A5008910C73083120313E7
:10013800A3009E28A30B9D28A12801300A128A112A
:1001480073220A128A110A128A1155220A128A1176
:1001580083120313A3002308A100C73083120313DB
:10016800A300B628A30BB528B92883120313891452
:100178000330A3002308A5000330A3002308A5002B
:100188000911C73083120313A300CA28A30BC92877
:10019800CD2801300A128A1173220A128A110A1212
:1001A8008A1155220A128A1183120313A300230805
:1001B800A000C73083120313A300E228A30BE12891
:1001C800E528831203130915A501A50A0230A30027
:1001D8002308F50001300A128A11D7210A128A1160
:1001E800790883120313A300A4012308F400240848
:1001F800F5000A128A117D210A128A1168280A124A
:100208008A110C28831603138801831203138801AB
:1002180083160313071087101A30F600F830F5001C
:10022800F50B1429F60B1429000083120313071089
:1002380030300A128A1132220A128A110830F60066
:10024800C930F500F50B2629F60B26292B29303065
:100258000A128A1132220A128A110F30F600473028
:10026800F500F50B3529F60B35293A2930300A12F5
:100278008A1132220A128A110330F6009730F500EB
:10028800F50B4429F60B4429492938300A128A11FA
:1002980032220A128A110330F6009730F500F50B66
:1002A8005329F60B532958290C300A128A11322285
:1002B8000A128A110330F6009730F500F50B62290F
:1002C800F60B6229672901300A128A1132220A12B2
:1002D8008A110330F6009730F500F50B7129F60BFB
:1002E8007129762906300A128A1132220A128A11D5
:1002F8000800F601F7019829760874078400770842
:100308000318770A7507FF000A128A1100220A12D9
:100318008A110A128A1146220A128A110130F60736
:100328000318F70A0030F70776087407840077087F
:100338000318770A750783120313FF000A128A113C
:1003480000220A128A11003A031DAB29AC29802920
:100358000800831603178801890183160313871081
:100368000711860188018312031386018801071586
:100378008714831603138901831203138901A501C6
:10038800A50A091489140915F201F301F4012030B2
:100398000A128A111C220A128A110A128A110621CB
:1003A8000A128A110800F7007503031DDC29DD29EC
:1003B800E92977087F3EF6007608F80078080A12DF
:1003C8008A1132220A128A11FA2902307506031D8F
:1003D800EE29EF29FA297708BF3EF6007608F800DB
:0E03E80078080A128A1132220A128A110800BD
:10040000FF1B0A2A83137F1883170008840A031925
:10041000FF0A080002308A000408840A82070034B8
:10042000533431343A340034533432343A340034AF
:10043000533433343A340034F500831603138712EF
:10044000751D232A242A282A7408940087152C2A2B
:1004500072087404940087117508730483120313DF
:1004600094000800F4008312031307107408880036
:1004700087140630F3003030F200F20B3D2AF30B04
:100480003D2A00008312031387100800F300831233
:10049000031307147308880087140D30F200F20B61
:1004A0004F2A83120313871008000A128A115E2252
:1004B0000A128A1183120313130808008316031308
:1004C000141C632A642A5E2A080001300A128A1169
:1004D00032220A128A11080071088A00700E830005
:1004E000FE0E7E0E0900F2007208831203139300C1
:0204F000080002
:04400E00F420FF3F5C
:00000001FF
