:020000040000FA
:060000000A128A11FC2F18
:100E9E00F0007008831203139300080083160313E7
:100EAE00141C5A2F5B2F552F08000A128A11552732
:100EBE000A128A118312031313080800F300831613
:100ECE0003138712731D6C2F6D2F712F72089400F0
:100EDE008715752F700872049400871173087104BA
:100EEE0083120313940008008316031788018901E7
:100EFE0083160313871007118601880183120313CB
:100F0E008601880107158714F001F101F2012030E6
:100F1E000A128A1165270A128A1108000A128A110A
:100F2E007B270A128A118312031307110330F5006F
:100F3E009730F400F40BA12FF50BA12FA62F013043
:100F4E000A128A114F270A128A110A128A115C2775
:100F5E000A128A118312031386000330F5009730AC
:100F6E00F400F40BB82FF50BB82FBD2F831203131B
:100F7E0007150330F5009730F400F40BC42FF50B72
:100F8E00C42FC92F8312031387100330F500973037
:100F9E00F400F40BD02FF50BD02FD52F01300A1201
:100FAE008A114F270A128A110A128A115C270A1215
:100FBE008A118312031388000330F5009730F40072
:100FCE00F40BE72FF50BE72FEC2F83120313871487
:100FDE000330F5009730F400F40BF32FF50BF32FDD
:100FEE00F82F9A2F0A128A11002883010A128A11E9
:020FFE00952F2D
:04400E00D620FF3F7A
:00000001FF
