:020000040000FA
:060000000A128A110C280F
:10000800FE00030EF1000A08F2000A128A115F28A6
:100018000A128A110F2883010A128A1113280A1258
:100028008A113D200A128A118312031308181D2809
:100038001E281828023083120313A2000430A100DE
:10004800B930A000A00B2628A10B2628A20B262831
:100058002D2883120313081C32283328182801304E
:10006800A0002008F8077808860018280A128A11C4
:100078000C28831603178801890183160313860148
:100088000130880083120313860188016430F70069
:100098007708F8008B170B178C11831603138C1530
:1000A8008516F301F401F50124300A128A117D2026
:1000B8000A128A110800831203138C1D642865280C
:1000C80076280A128A1193200A128A1183120313BE
:1000D800880078080A128A11A3200A128A1183124A
:1000E80003138C1172088A00710E8300FE0E7E0EB7
:1000F8000900F600831603138712761D84288528C5
:1001080089287508940087158D287308750494004C
:1001180087117608740483120313940008000A12E6
:100128008A119C200A128A118312031313080800EB
:1001380083160313141CA128A2289C280800F00089
:0A01480070088312031393000800EF
:04400E00D620FF3F7A
:00000001FF
