:020000040000FA
:060000000A128A110C280F
:10000800FE00030EF7000A08F8000A128A11A22857
:100018000A128A110F28F001F101F201F301F4012B
:10002800F501F60183010A128A111A280A128A11A7
:100038006D200A128A11C730F9002228F90B2128ED
:1000480025282628831203139F147403031D2D28C3
:100058002E283F28831203131E08F9007908F000A0
:10006800F401C730F9003828F90B37283B283C2819
:10007800831203139F144030700203184428452844
:100088004B288312031308148810081129283F30BD
:100098007002031C502851285D284630700203184E
:1000A800562857285D28831203138814081008114E
:1000B800292845307002031C6228632869288312A6
:1000C8000313881008100815292829280A128A11EC
:1000D8000C28831603138801831203138801013047
:1000E800831603138500831603178801F601F501AB
:1000F800F401F1018312031387018316031708150E
:100108008312031305111F083F3940389F008316D7
:1001180003131F129F12831203131F08C3390838D1
:100128009F00831603139F13831203131F140C13CA
:10013800831603130C170B178B170800831203136E
:100148000C1FA728A828AB280C13F401F40A0B1DD0
:10015800AE28AF28BE280B117108031DB428B52896
:10016800B828F101F10ABE287103031DBC28BD2877
:10017800BE28F10178088A00770E8300FE0E7E0EF5
:0201880009006C
:04400E00F420FF3F5C
:00000001FF
