:020000040000FA
:060000000A128A11FA2F1A
:100E80008316031388010814881408158501831636
:100E9000031788018316031386018316031789013C
:100EA000831203138801850186010800F300F10114
:100EB000F201752FF401F5010130F4070318F50A6A
:100EC0000030F5077508803AFF0080307F02031D6F
:100ED0006B2FFF307402031C6E2F6F2F5C2F0130BD
:100EE000F1070318F20A0030F2077208803AF000A6
:100EF00080307002031D7E2F73087102031C812F46
:100F0000822F5A2F08000A128A1140270A128A11CA
:100F100083120313081D8D2F8E2F882F013085001B
:100F2000013086008801C8300A128A1156270A1239
:100F30008A11831203138815C8300A128A115627A2
:100F40000A128A11831203130816C8300A128A1172
:100F500056270A128A11831203138816F801F70123
:100F6000ED2F78080319B52FB62FBB2F0818B92F0E
:100F7000BA2FBB2FF80177080319BF2FC02FC52F39
:100F80008818C32FC42FC52FF7017808031DC92F58
:100F9000CA2FD92F081CCD2FCE2FD92F0508F60028
:100FA00076078500F801F80A851FD72FD82FD92F8B
:100FB00008177708031DDD2FDE2FED2F881CE12F8A
:100FC000E22FED2F0608F60076078600F701F70AF4
:100FD000861FEB2FEC2FED2F8817081BF02FF12F1A
:100FE000F62F881FF42FF52FB12F882F882F0A1284
:100FF0008A110028F701F80183010A128A11832F50
:04400E00F420FF3F5C
:00000001FF
