:020000040000FA
:060000000A128A110C280F
:10000800FE00030EF5000A08F6000A128A11A42859
:100018000A128A110F28F001F101F201F301F4012B
:1000280083010A128A1118280A128A1175200A12E5
:100038008A11C730F8002028F80B1F282328242805
:10004800831203139F147403031D2B282C283128B3
:1000580005182F2830283128F4017303031D35288B
:1000680036283B28851839283A283B28F301051CEF
:100078003E283F2849287408031D43284428492856
:10008800F401F40A0808013E8800851C4C284D2814
:1000980057287308031D512852285728F301F30ADB
:1000A8000808FF3E88007203031D5B285C28272888
:1000B8000A128A11B4200A128A11F8007808F1008D
:1000C800F201C730F8006828F80B67286B286C28FD
:1000D800831203139F147108880027280A128A11B3
:1000E8000C28831603138801831203138801013037
:1000F800831603138500831603178801F401F3019F
:10010800F20108158312031305111F083F394038FF
:100118009F00831603131F129F12831203131F08D5
:10012800C33908389F00831603139F1383120313E0
:100138001F140C13831603130C170B178B170800C7
:10014800831203130C1FA928AA28AD280C13F20147
:10015800F20A76088A00750E8300FE0E7E0E0900EC
:10016800831203131E08F7007708F00070080800D0
:04400E00F420FF3F5C
:00000001FF
