:020000040000FA
:060000000A128A11FA2F1A
:100F56008316031388018312031388010130831655
:100F660003138500831603178801F101F0010800B9
:100F76000A128A11AB270A128A117103031DC42FA4
:100F8600C52FCC2F831203130518CA2FCB2FCC2FB6
:100F9600F1017003031DD02FD12FD82F8312031315
:100FA6008518D62FD72FD82FF00183120313051CCF
:100FB600DD2FDE2FE82F7108031DE22FE32FE82F28
:100FC600F101F10A0808013E8800851CEB2FEC2F81
:100FD600C02F7008031DF02FF12FC02FF001F00A6B
:100FE6000808FF3E8800C02F0A128A110028F00167
:0A0FF600F10183010A128A11BB2FDA
:04400E00F420FF3F5C
:00000001FF
