:020000040000FA
:100000000A128A11F12F00308A000408840A82073C
:10001000003448344F344C34413420346234613439
:0A0020006234793400346134003496
:100D560001300A128A11D2260A128A11080064008A
:100D66008001840A0406031900340406B32E831690
:100D7600031388010A128A117A270A128A110800B7
:100D8600F1008312031307147108880087140D30CD
:100D9600F000F00BCC2E8312031387100800F2002C
:100DA6008312031307107208880087140630F100B7
:100DB6003030F000F00BDD2EF10BDD2E000083123B
:100DC600031387100800F5007303031DEB2EEC2EAA
:100DD600F82E75087F3EF4007408F60076080A12AD
:100DE6008A11D2260A128A11092F02307306031DB0
:100DF600FD2EFE2E092F7508BF3EF4007408F6007E
:100E060076080A128A11D2260A128A110800F400FC
:100E1600F201F301212F7208740784000A128A1165
:100E260003200A128A110A128A11C3260A128A118B
:100E36000130F2070318F30A0030F307720874074B
:100E460084000A128A1103200A128A11003A031D2D
:100E56002D2F2E2F0E2F08000A128A11BA260A12DB
:100E66008A110A128A11AB260A128A11F301F30AB1
:100E760001300A128A11E6260A128A110B300A126A
:100E86008A110A270A128A110830F9009D30F800E3
:100E96000530F700F70B4D2FF80B4D2FF90B4D2FA3
:100EA600542F0A128A11AB260A128A110230F70051
:100EB6007708F30001300A128A11E6260A128A110F
:100EC60001300A128A110A270A128A110830F9001B
:100ED6009D30F8000530F700F70B6F2FF80B6F2FDA
:100EE600F90B6F2F762F762F0A128A110028831698
:100EF6000313880183120313880183160313071053
:100F060087101A30F400F830F300F30B882FF40B37
:100F1600882F000083120313071030300A128A113B
:100F2600D2260A128A110830F400C930F300F30BF6
:100F36009A2FF40B9A2F9F2F30300A128A11D2263D
:100F46000A128A110F30F4004730F300F30BA92F71
:100F5600F40BA92FAE2F30300A128A11D2260A12AC
:100F66008A110330F4009730F300F30BB82FF40B1B
:100F7600B82FBD2F38300A128A11D2260A128A11CA
:100F86000330F4009730F300F30BC72FF40BC72F91
:100F9600CC2F0C300A128A11D2260A128A1103307B
:100FA600F4009730F300F30BD62FF40BD62FDB2F7C
:100FB60001300A128A11D2260A128A110330F4006D
:100FC6009730F300F30BE52FF40BE52FEA2F0630ED
:100FD6000A128A11D2260A128A110800FA01FB01A6
:100FE60083132030840030300A128A11B2260A1286
:0A0FF6008A1183010A128A112F2FBD
:04400E00F420FF3F5C
:00000001FF
