:020000040000FA
:100000000A128A11F42FFF1B0D2883137F18831700
:100010000008840A0319FF0A080000308A00040857
:10002000840A8207003448344F344C34413420343D
:100030006234613462347934003430340034313421
:06004000003461340034BD
:100CC00001300A128A117F260A128A11080083163F
:100CD000031388010A128A11F9260A128A110800E0
:100CE000F1008312031307147108880087140D3074
:100CF000F000F00B792E8312031387100800F20026
:100D00008312031307107208880087140630F1005D
:100D10003030F000F00B8A2EF10B8A2E0000831287
:100D2000031387100800F5007303031D982E992EF6
:100D3000A52E75087F3EF4007408F60076080A12A6
:100D40008A117F260A128A11B62E02307306031DFD
:100D5000AA2EAB2EB62E7508BF3EF4007408F6001E
:100D600076080A128A117F260A128A110800F701F2
:100D7000F801DC2E77087207F5007308F4000318F9
:100D8000F40AF71FC42EF4037408F60076088312E1
:100D90000313FF00750884000A128A1103200A1247
:100DA0008A110A128A1170260A128A110130F70775
:100DB0000318F80A0030F80777087207F50073087F
:100DC000F4000318F40AF71FE62EF4037408F60083
:100DD000760883120313FF00750884000A128A1133
:100DE00003200A128A11003A031DF72EF82EBA2E9C
:100DF00008008316031388018312031388018316E6
:100E00000313071087101A30F400F830F300F30BC7
:100E1000072FF40B072F0000831203130710303045
:100E20000A128A117F260A128A110830F400C9308A
:100E3000F300F30B192FF40B192F1E2F30300A1269
:100E40008A117F260A128A110F30F4004730F3000E
:100E5000F30B282FF40B282F2D2F30300A128A1174
:100E60007F260A128A110330F4009730F300F30B47
:100E7000372FF40B372F3C2F38300A128A117F2678
:100E80000A128A110330F4009730F300F30B462F57
:100E9000F40B462F4B2F0C300A128A117F260A12B0
:100EA0008A110330F4009730F300F30B552FF40B45
:100EB000552F5A2F01300A128A117F260A128A11E1
:100EC0000330F4009730F300F30B642FF40B642F1E
:100ED000692F06300A128A117F260A128A11080029
:100EE0000A128A1167260A128A110A128A116026CA
:100EF0000A128A11F301F30A01300A128A119326A9
:100F00000A128A110F30F2008030F3000A128A119F
:100F1000B7260A128A110830FB009D30FA0005300E
:100F2000F900F90B912FFA0B912FFB0B912F982FB2
:100F30000A128A1160260A128A110230F900790811
:100F4000F30001300A128A1193260A128A11013025
:100F5000F2008030F3000A128A11B7260A128A11B1
:100F60000830FB009D30FA000530F900F90BB62F70
:100F7000FA0BB62FFB0BB62FBD2F0A128A11602673
:100F80000A128A110D30F900790883120313A000A8
:100F90000B30F9007908A1000D30F9007908A200A2
:100FA0000230F9007908F30001300A128A11932601
:100FB0000A128A112030F2000030F3000A128A115E
:100FC000B7260A128A110330FB008A30FA00553026
:100FD000F900F90BE92FFA0BE92FFB0BE92FF02FA2
:100FE000F02F0A128A110028FC01FD01831203135D
:100FF000A001A101A201A30183010A128A11702F8D
:04400E00F420FF3F5C
:00000001FF
